{
  "transactions": [
    {
      "hash": "0xec992db3fc013a7be995fb0be444de7bbcfc6c0f97d92a923a75318d52226607",
      "transactionType": "CREATE",
      "contractName": "ReputationTokens",
      "contractAddress": "0xf34bd9cf68b66f2d41365c122b2b26fa5ea99dc7",
      "function": null,
      "arguments": [
        "0x2911B8cB873651Cb99f9975E6791EDBded598017",
        "[0x08c93Bdb1EFb73386E7D57Af26eea36C5749E790, 0x2911B8cB873651Cb99f9975E6791EDBded598017]",
        "[0x08c93Bdb1EFb73386E7D57Af26eea36C5749E790, 0x2911B8cB873651Cb99f9975E6791EDBded598017]"
      ],
      "transaction": {
        "from": "0x08c93bdb1efb73386e7d57af26eea36c5749e790",
        "gas": "0x3f25f7",
        "value": "0x0",
        "input": "0x608060405234801561001057600080fd5b5060405161374938038061374983398101604081905261002f916102ff565b610038836100cc565b60005b8251811015610078576100706000801b84838151811061005d5761005d610379565b60200260200101516100d860201b60201c565b60010161003b565b5060005b81518110156100c3576100bb7ffc1552b6aa2747ab03534329d86f6d3131cc2c88af7e48b6486c346619047c1a83838151811061005d5761005d610379565b60010161007c565b5050505061038f565b6100d58161014c565b50565b60008281527fd3889cc5458b268d0544e5534672df1296288ca3f93cbd39bd6f497a5c6228116020526040902061010f90826101c6565b5060405133906001600160a01b0383169084907f2f8788117e7eff1d82e926ec794901d17c78024a50270940304540a733656f0d90600090a45050565b7f8a22373512790c48b83a1fe2efdd2888d4a917bcdc24d0adf63e60f67168046080546040516001600160a01b038481169216907f8be0079c531659141344cd1fd0a4f28419497f9722a3daafe3b4186f6b6457e090600090a380546001600160a01b0319166001600160a01b0392909216919091179055565b60006101db836001600160a01b0384166101e4565b90505b92915050565b60008181526001830160205260408120546101de575081546001808201845560008481526020808220909301849055845493815293810190915260409092205590565b80516001600160a01b038116811461023e57600080fd5b919050565b634e487b7160e01b600052604160045260246000fd5b600082601f83011261026a57600080fd5b81516001600160401b0381111561028357610283610243565b604051600582901b90603f8201601f191681016001600160401b03811182821017156102b1576102b1610243565b6040529182526020818501810192908101868411156102cf57600080fd5b6020860192505b838310156102f5576102e783610227565b8152602092830192016102d6565b5095945050505050565b60008060006060848603121561031457600080fd5b61031d84610227565b60208501519093506001600160401b0381111561033957600080fd5b61034586828701610259565b604086015190935090506001600160401b0381111561036357600080fd5b61036f86828701610259565b9150509250925092565b634e487b7160e01b600052603260045260246000fd5b6133ab8061039e6000396000f3fe608060405234801561001057600080fd5b506004361061021b5760003560e01c80638accdfe911610125578063bd85b039116100ad578063d547741f1161007c578063d547741f14610561578063e985e9c514610574578063efc1e71214610587578063f242432a1461059a578063f2fde38b146105ad57600080fd5b8063bd85b039146104ed578063ca15c87314610500578063caa2fe3214610513578063d53913931461053a57600080fd5b80639010d07c116100f45780639010d07c1461046d57806391d1485414610480578063a1a7212014610493578063a22cb465146104c7578063b383577c146104da57600080fd5b80638accdfe9146104005780638ada943b146104135780638bb9c5bf1461043a5780638da5cb5b1461044d57600080fd5b80634ae1ca4c116101a8578063731133e911610177578063731133e91461036357806376aed2e1146103765780637bbb0807146103a6578063835c9282146103b957806385bff2e7146103ed57600080fd5b80634ae1ca4c146102fd5780634e1273f41461031057806353536a1c146103305780636dcfd8411461034357600080fd5b80631f7fdffa116101ef5780631f7fdffa1461029c578063248a9ca3146102b15780632eb2c2d6146102c45780632f2ff15d146102d757806343567fe2146102ea57600080fd5b8062fdd58e1461022057806301ffc9a7146102465780630e89341c1461026957806313ba55df14610289575b600080fd5b61023361022e366004612639565b6105c0565b6040519081526020015b60405180910390f35b610259610254366004612679565b6105d5565b604051901515815260200161023d565b61027c610277366004612696565b610616565b60405161023d91906126ff565b610233610297366004612696565b6107e5565b6102af6102aa366004612869565b6107f0565b005b6102336102bf366004612696565b6108cc565b6102af6102d236600461290b565b6108d7565b6102af6102e53660046129be565b610937565b6102af6102f83660046129f9565b610958565b61023361030b366004612639565b6109d0565b61032361031e366004612a4f565b610a35565b60405161023d9190612b5e565b6102af61033e36600461290b565b610b9f565b610356610351366004612696565b610c2b565b60405161023d9190612b71565b6102af610371366004612bbd565b610c36565b610399610384366004612696565b60009081526020819052604090205460ff1690565b60405161023d9190612c3d565b6102af6103b4366004612cd9565b610cbd565b6102336103c7366004612639565b60009081526002602090815260408083206001600160a01b039094168352929052205490565b6103236103fb366004612dcc565b610d4c565b6102af61040e366004612de7565b610d57565b6102337f832b0668f4756f82d274d4d6d2a66f96a8b25b4353ad5dfdae0e691d7769619b81565b6102af610448366004612696565b610dc5565b610455610dd1565b6040516001600160a01b03909116815260200161023d565b61045561047b366004612e3f565b610e09565b61025961048e3660046129be565b610e15565b6102336104a1366004612639565b60009081526001602090815260408083206001600160a01b039094168352929052205490565b6102af6104d5366004612e61565b610e21565b6102af6104e836600461290b565b610ed5565b6102336104fb366004612696565b610f35565b61023361050e366004612696565b610f68565b6102337ffc1552b6aa2747ab03534329d86f6d3131cc2c88af7e48b6486c346619047c1a81565b6102337f9f2df0fed2c77648de5860a4cc508cd0818c85b8b8a1ab4ceeef8d981c8956a681565b6102af61056f3660046129be565b610f73565b610259610582366004612e9d565b610f8f565b6102af610595366004612de7565b610fdc565b6102af6105a8366004612de7565b611069565b6102af6105bb366004612dcc565b611082565b60006105cc83836110d5565b90505b92915050565b6001600160e01b0319811660009081527ffc606c433378e3a7e0a6a531deac289b66caa1b4aa8554fd4ab2c6f1570f92d8602052604081205460ff166105cf565b60008181527f4281b61aefbe70b3d3f684b428efca5f33077bc240e76f2808f9177c307617f56020526040812080546060927f4281b61aefbe70b3d3f684b428efca5f33077bc240e76f2808f9177c307617f492909161067590612ec7565b80601f01602080910402602001604051908101604052809291908181526020018280546106a190612ec7565b80156106ee5780601f106106c3576101008083540402835291602001916106ee565b820191906000526020600020905b8154815290600101906020018083116106d157829003601f168201915b50505050509050600082600001805461070690612ec7565b80601f016020809104026020016040519081016040528092919081815260200182805461073290612ec7565b801561077f5780601f106107545761010080835404028352916020019161077f565b820191906000526020600020905b81548152906001019060200180831161076257829003601f168201915b50505050509050805160000361079757509392505050565b8151156107ca5780826040516020016107b1929190612f01565b6040516020818303038152906040529350505050919050565b806107d486611133565b6040516020016107b1929190612f01565b60006105cf82611140565b7f9f2df0fed2c77648de5860a4cc508cd0818c85b8b8a1ab4ceeef8d981c8956a661081a81611176565b60005b845181101561086b5761086385828151811061083b5761083b612f30565b60200260200101518786848151811061085657610856612f30565b6020026020010151611180565b60010161081d565b50846001600160a01b0316336001600160a01b03167f5c5ac6bfb3f54a39f008d2e9be10d575012f29230716d49e92da377d748b1a8786866040516108b1929190612f46565b60405180910390a36108c5858585856111bc565b5050505050565b60006105cf82611313565b60005b83518110156109295761092186868684815181106108fa576108fa612f30565b602002602001015186858151811061091457610914612f30565b6020026020010151611335565b6001016108da565b506108c5858585858561140a565b61094082611313565b61094981611176565b6109538383611455565b505050565b7ffc1552b6aa2747ab03534329d86f6d3131cc2c88af7e48b6486c346619047c1a61098281611176565b61098d8484846114b7565b82600281111561099f5761099f612c05565b60405185907fead07cdef2d99ab0a2ec063fec849359dcf522a7aef017a8578461a11a478db390600090a350505050565b6000806109dd84846105c0565b60008481526001602090815260408083206001600160a01b038916808552908352818420548885526002845282852091855292529091205491925090610a239083612f81565b610a2d9190612f81565b949350505050565b60608151835114610a5957604051633e7e0b6d60e11b815260040160405180910390fd5b8251600080516020613356833981519152906000906001600160401b03811115610a8557610a85612712565b604051908082528060200260200182016040528015610aae578160200160208202803683370190505b50905060005b8551811015610b965760006001600160a01b0316868281518110610ada57610ada612f30565b60200260200101516001600160a01b031603610b095760405163db5d879760e01b815260040160405180910390fd5b826000868381518110610b1e57610b1e612f30565b602002602001015181526020019081526020016000206000878381518110610b4857610b48612f30565b60200260200101516001600160a01b03166001600160a01b0316815260200190815260200160002054828281518110610b8357610b83612f30565b6020908102919091010152600101610ab4565b50949350505050565b7f832b0668f4756f82d274d4d6d2a66f96a8b25b4353ad5dfdae0e691d7769619b610bc981611176565b846001600160a01b0316866001600160a01b03167fae334044d89a4678143ca617bb58de300b0747c711a5515afc005344ce0169478686604051610c0e929190612f46565b60405180910390a3610c23868686868661140a565b505050505050565b60606105cf826114f1565b7f9f2df0fed2c77648de5860a4cc508cd0818c85b8b8a1ab4ceeef8d981c8956a6610c6081611176565b610c6b848685611180565b60408051858152602081018590526001600160a01b0387169133917f2f00e3cdd69a77be7ed215ec7b2a36784dd158f921fca79ac29deffa353fe6ee910160405180910390a36108c5858585856115c4565b7ffc1552b6aa2747ab03534329d86f6d3131cc2c88af7e48b6486c346619047c1a610ce781611176565b610cf284848461169d565b82604051610d009190612f94565b604051809103902084604051610d169190612fd2565b604051908190038120907f458bf7bb252bc16e01b2caf4ced1e71c065d09eccd86100e5f32036a1a55601490600090a350505050565b60606105cf82611707565b610d628386846117cf565b836001600160a01b0316856001600160a01b03167fcc27ae92d0cb1b1cee817e78e1fd2d4aaf4b6fceecf8400f074698578a83c9be8585604051610db0929190918252602082015260400190565b60405180910390a36108c58585858585611801565b610dce8161184c565b50565b6000610e047f8a22373512790c48b83a1fe2efdd2888d4a917bcdc24d0adf63e60f671680460546001600160a01b031690565b905090565b60006105cc8383611856565b60006105cc838361187b565b6001600160a01b0382163303610e4a57604051637b30a93360e11b815260040160405180910390fd5b3360008181527f1799cf914cb0cb442ca7c7ac709ee40d0cb89e87351dc08d517fbda27d50c68c602090815260408083206001600160a01b03871680855290835292819020805460ff191686151590811790915590519081529192917f17307eab39ab6107e8899845ad3d59bd9653f200f220920489ca2b5937696c31910160405180910390a35050565b60005b8351811015610f2657610f1e848281518110610ef657610ef6612f30565b602002602001015187858481518110610f1157610f11612f30565b60200260200101516117cf565b600101610ed8565b506108c58586868686866118a0565b60008181527fb31c2c74f86ca3ce94d901f5f5bbe66f7161eec2f7b5aa0b75a86371436424ea60205260408120546105cf565b60006105cf826118bc565b610f7c82611313565b610f8581611176565b61095383836118e0565b6001600160a01b0391821660009081527f1799cf914cb0cb442ca7c7ac709ee40d0cb89e87351dc08d517fbda27d50c68c6020908152604080832093909416825291909152205460ff1690565b7f832b0668f4756f82d274d4d6d2a66f96a8b25b4353ad5dfdae0e691d7769619b61100681611176565b846001600160a01b0316866001600160a01b03167fd616b8856fa5febbdb06f07dd8d624380d02864619f3b796002f43bc36a4d1bc8686604051611054929190918252602082015260400190565b60405180910390a3610c238686868686611801565b61107585858585611335565b6108c58585858585611801565b7f8a22373512790c48b83a1fe2efdd2888d4a917bcdc24d0adf63e60f671680460546001600160a01b031633146110cc57604051632f7a8ee160e01b815260040160405180910390fd5b610dce81611942565b60006001600160a01b0383166110fe5760405163db5d879760e01b815260040160405180910390fd5b6000805160206133568339815191526000928352602090815260408084206001600160a01b0395909516845293905250205490565b60606105cf82600a61194b565b60008181527fb31c2c74f86ca3ce94d901f5f5bbe66f7161eec2f7b5aa0b75a86371436424eb602052604081206105cf906119a1565b610dce81336119ab565b60008381526001602090815260408083206001600160a01b0386168452909152812080548392906111b2908490612ffd565b9091555050505050565b6001600160a01b0384166111e3576040516301c8efbf60e11b815260040160405180910390fd5b815183511461120557604051633e7e0b6d60e11b815260040160405180910390fd5b61121433600086868686611a1a565b60008051602061335683398151915260005b84518110156112b35783818151811061124157611241612f30565b602002602001015182600087848151811061125e5761125e612f30565b602002602001015181526020019081526020016000206000886001600160a01b03166001600160a01b0316815260200190815260200160002060008282546112a69190612ffd565b9091555050600101611226565b50846001600160a01b031660006001600160a01b0316336001600160a01b03167f4a39dc06d4c0dbc64b70af90fd698a233a518aa5d07e595d983b8c0526c8f7fb8787604051611304929190612f46565b60405180910390a45050505050565b6000908152600080516020613336833981519152602052604090206002015490565b600160008381526020819052604090205460ff16600281111561135a5761135a612c05565b03611378576040516326e9d7ed60e21b815260040160405180910390fd5b61138284836109d0565b8111156113a2576040516350c8cedb60e11b815260040160405180910390fd5b600260008381526020819052604090205460ff1660028111156113c7576113c7612c05565b036114045760008281526002602090815260408083206001600160a01b0387168452909152812080548392906113fe908490612ffd565b90915550505b50505050565b6001600160a01b038516331480159061142a57506114288533610f8f565b155b15611447576040516212efed60e91b815260040160405180910390fd5b6108c53386868686866118a0565b60008281526000805160206133368339815191526020526040902061147a9082611a28565b5060405133906001600160a01b0383169084907f2f8788117e7eff1d82e926ec794901d17c78024a50270940304540a733656f0d90600090a45050565b6000838152602081905260409020805483919060ff191660018360028111156114e2576114e2612c05565b02179055506109538382611a3d565b60008181527fb31c2c74f86ca3ce94d901f5f5bbe66f7161eec2f7b5aa0b75a86371436424eb6020526040812060609161152a826119a1565b6001600160401b0381111561154157611541612712565b60405190808252806020026020018201604052801561156a578160200160208202803683370190505b50905060005b611579836119a1565b8110156115bc5761158a8382611ab1565b82828151811061159c5761159c612f30565b6001600160a01b0390921660209283029190910190910152600101611570565b509392505050565b6001600160a01b0384166115eb576040516301c8efbf60e11b815260040160405180910390fd5b61160a336000866115fb87611abd565b61160487611abd565b86611a1a565b6000838152600080516020613356833981519152602090815260408083206001600160a01b038816845290915281208054849290611649908490612ffd565b909155505060408051848152602081018490526001600160a01b0386169160009133917fc3d58168c5ae7397731d063d5bbf3d657854427343f4c083240f7aacaa2d0f62910160405180910390a450505050565b60005b8351811015611404576116ff8482815181106116be576116be612f30565b60200260200101518483815181106116d8576116d8612f30565b60200260200101518484815181106116f2576116f2612f30565b60200260200101516114b7565b6001016116a0565b6001600160a01b03811660009081527fb31c2c74f86ca3ce94d901f5f5bbe66f7161eec2f7b5aa0b75a86371436424ec6020526040812060609161174a826119a1565b6001600160401b0381111561176157611761612712565b60405190808252806020026020018201604052801561178a578160200160208202803683370190505b50905060005b611799836119a1565b8110156115bc576117aa8382611ab1565b8282815181106117bc576117bc612f30565b6020908102919091010152600101611790565b60008381526001602090815260408083206001600160a01b0386168452909152812080548392906111b2908490612f81565b6001600160a01b0385163314801590611821575061181f8533610f8f565b155b1561183e576040516212efed60e91b815260040160405180910390fd5b6108c5338686868686611b08565b610dce81336118e0565b6000828152600080516020613336833981519152602052604081206105cc9083611ab1565b6000828152600080516020613336833981519152602052604081206105cc9083611b24565b6118ae868686868686611b46565b610c23868686868686611cef565b6000818152600080516020613336833981519152602052604081206105cf906119a1565b6000828152600080516020613336833981519152602052604090206119059082611e08565b5060405133906001600160a01b0383169084907ff6391f5c32d9c69d2a47ea670b442974b53935d1edc7fd64eb21e047a839171b90600090a45050565b610dce81611e1d565b6060600282101561196f57604051636cec05d160e01b815260040160405180910390fd5b6000835b6001909101906119838482613026565b90508060000361197357611998858584611e97565b95945050505050565b60006105cf825490565b6119b5828261187b565b611a16576119cb816001600160a01b0316611f9c565b6119d6836020611fae565b6040516020016119e792919061303a565b60408051601f198184030181529082905262461bcd60e51b8252611a0d916004016126ff565b60405180910390fd5b5050565b610c238686868686866120f3565b60006105cc836001600160a01b0384166122df565b60008281527f4281b61aefbe70b3d3f684b428efca5f33077bc240e76f2808f9177c307617f560205260409020611a7482826130f6565b50817f6bb7ff708619ba0610cba295a58592e0451dee2622938c8755667688daf3529b82604051611aa591906126ff565b60405180910390a25050565b60006105cc8383612322565b60408051600180825281830190925260609160009190602080830190803683370190505090508281600081518110611af757611af7612f30565b602090810291909101015292915050565b611b1686868686868661236e565b610c23868686868686612484565b6001600160a01b038116600090815260018301602052604081205415156105cc565b6001600160a01b038416611b6d5760405163f5cadad560e01b815260040160405180910390fd5b8151835114611b8f57604051633e7e0b6d60e11b815260040160405180910390fd5b611b9d868686868686611a1a565b60008051602061335683398151915260005b8451811015611c8e576000858281518110611bcc57611bcc612f30565b602002602001015190506000858381518110611bea57611bea612f30565b602090810291909101810151600084815286835260408082206001600160a01b038e168352909352919091205490915080821115611c3b5760405163119ac6bb60e31b815260040160405180910390fd5b6000838152602086815260408083206001600160a01b038e811685529252808320938590039093558a168152908120805460019590950194839290611c81908490612ffd565b90915550611baf92505050565b50846001600160a01b0316866001600160a01b0316886001600160a01b03167f4a39dc06d4c0dbc64b70af90fd698a233a518aa5d07e595d983b8c0526c8f7fb8787604051611cde929190612f46565b60405180910390a450505050505050565b6001600160a01b0384163b15610c235760405163bc197c8160e01b81526001600160a01b0385169063bc197c8190611d3390899089908890889088906004016131b4565b6020604051808303816000875af1925050508015611d6e575060408051601f3d908101601f19168201909252611d6b91810190613212565b60015b611dce57611d7a61322f565b806308c379a003611db35750611d8e61324b565b80611d995750611db5565b8060405162461bcd60e51b8152600401611a0d91906126ff565b505b60405163380147a960e01b815260040160405180910390fd5b6001600160e01b0319811663bc197c8160e01b14611dff57604051633744db2960e01b815260040160405180910390fd5b50505050505050565b60006105cc836001600160a01b038416612540565b7f8a22373512790c48b83a1fe2efdd2888d4a917bcdc24d0adf63e60f67168046080546040516001600160a01b038481169216907f8be0079c531659141344cd1fd0a4f28419497f9722a3daafe3b4186f6b6457e090600090a380546001600160a01b0319166001600160a01b0392909216919091179055565b60606002831080611ea85750602483115b15611ec657604051636cec05d160e01b815260040160405180910390fd5b6000826001600160401b03811115611ee057611ee0612712565b6040519080825280601f01601f191660200182016040528015611f0a576020820181803683370190505b5090505b8215611f7d57600019909201916000611f2785876132c6565b9050600a811015611f3a57603017611f3e565b6057015b8060f81b828581518110611f5457611f54612f30565b60200101906001600160f81b031916908160001a905350611f758587613026565b955050611f0e565b8415610a2d576040516355a04ff160e11b815260040160405180910390fd5b60606105cf6001600160a01b03831660145b60011b60020160606000826001600160401b03811115611fd057611fd0612712565b6040519080825280601f01601f191660200182016040528015611ffa576020820181803683370190505b509050600360fc1b8160008151811061201557612015612f30565b60200101906001600160f81b031916908160001a905350600f60fb1b8160018151811061204457612044612f30565b60200101906001600160f81b031916908160001a9053505b60028311156120cd57600019909201916f181899199a1a9b1b9c1cb0b131b232b360811b600f85166010811061209457612094612f30565b1a60f81b8184815181106120aa576120aa612f30565b60200101906001600160f81b031916908160001a905350600484901c935061205c565b83156120ec576040516355a04ff160e11b815260040160405180910390fd5b9392505050565b836001600160a01b0316856001600160a01b031614610c23576001600160a01b0385811660009081527fb31c2c74f86ca3ce94d901f5f5bbe66f7161eec2f7b5aa0b75a86371436424ec6020526040808220928716825281207fb31c2c74f86ca3ce94d901f5f5bbe66f7161eec2f7b5aa0b75a86371436424ea927fb31c2c74f86ca3ce94d901f5f5bbe66f7161eec2f7b5aa0b75a86371436424eb929091905b87518110156122d25760008782815181106121b1576121b1612f30565b6020026020010151905060008111156122c95760008983815181106121d8576121d8612f30565b6020026020010151905060006001600160a01b03168c6001600160a01b031603612225576000818152602088905260408120805484929061221a908490612ffd565b9091555061225a9050565b816122308d836110d5565b0361225a57600081815260208790526040902061224d908d611e08565b506122588582612605565b505b6001600160a01b038b166122915760008181526020889052604081208054849290612286908490612f81565b909155506122c79050565b61229b8b826110d5565b6000036122c75760008181526020879052604090206122ba908c611a28565b506122c58482612611565b505b505b50600101612194565b5050505050505050505050565b60008181526001830160205260408120546105cf575081546001808201845560008481526020808220909301849055845493815293810190915260409092205590565b815460009082106123465760405163e637bf3b60e01b815260040160405180910390fd5b82600001828154811061235b5761235b612f30565b9060005260206000200154905092915050565b6001600160a01b0384166123955760405163f5cadad560e01b815260040160405180910390fd5b6123a48686866115fb87611abd565b6000838152600080516020613356833981519152602081815260408084206001600160a01b038a16855290915290912054808411156123f65760405163119ac6bb60e31b815260040160405180910390fd5b6000858152602083815260408083206001600160a01b038b81168552925280832093879003909355871681529081208054859290612435908490612ffd565b909155505060408051858152602081018590526001600160a01b038088169289821692918b16917fc3d58168c5ae7397731d063d5bbf3d657854427343f4c083240f7aacaa2d0f629101611cde565b6001600160a01b0384163b15610c235760405163f23a6e6160e01b81526001600160a01b0385169063f23a6e61906124c890899089908890889088906004016132da565b6020604051808303816000875af1925050508015612503575060408051601f3d908101601f1916820190925261250091810190613212565b60015b61250f57611d7a61322f565b6001600160e01b0319811663f23a6e6160e01b14611dff57604051633744db2960e01b815260040160405180910390fd5b600081815260018301602052604081205480156125fe5783546000908590600019810190811061257257612572612f30565b906000526020600020015490508085600001600184038154811061259857612598612f30565b60009182526020808320909101929092559182526001860190526040902081905583548490806125ca576125ca61331f565b6001900381819060005260206000200160009055905583600101600084815260200190815260200160002060009055600191505b5092915050565b60006105cc8383612540565b60006105cc83836122df565b80356001600160a01b038116811461263457600080fd5b919050565b6000806040838503121561264c57600080fd5b6126558361261d565b946020939093013593505050565b6001600160e01b031981168114610dce57600080fd5b60006020828403121561268b57600080fd5b81356120ec81612663565b6000602082840312156126a857600080fd5b5035919050565b60005b838110156126ca5781810151838201526020016126b2565b50506000910152565b600081518084526126eb8160208601602086016126af565b601f01601f19169290920160200192915050565b6020815260006105cc60208301846126d3565b634e487b7160e01b600052604160045260246000fd5b601f8201601f191681016001600160401b038111828210171561274d5761274d612712565b6040525050565b60006001600160401b0382111561276d5761276d612712565b5060051b60200190565b600082601f83011261278857600080fd5b813561279381612754565b6040516127a08282612728565b80915082815260208101915060208360051b8601019250858311156127c457600080fd5b602085015b838110156127e15780358352602092830192016127c9565b5095945050505050565b600082601f8301126127fc57600080fd5b8135602083016000806001600160401b0384111561281c5761281c612712565b50604051601f8401601f1916602001906128368282612728565b80925084815287858501111561284b57600080fd5b84846020830137600060208683010152809550505050505092915050565b6000806000806080858703121561287f57600080fd5b6128888561261d565b935060208501356001600160401b038111156128a357600080fd5b6128af87828801612777565b93505060408501356001600160401b038111156128cb57600080fd5b6128d787828801612777565b92505060608501356001600160401b038111156128f357600080fd5b6128ff878288016127eb565b91505092959194509250565b600080600080600060a0868803121561292357600080fd5b61292c8661261d565b945061293a6020870161261d565b935060408601356001600160401b0381111561295557600080fd5b61296188828901612777565b93505060608601356001600160401b0381111561297d57600080fd5b61298988828901612777565b92505060808601356001600160401b038111156129a557600080fd5b6129b1888289016127eb565b9150509295509295909350565b600080604083850312156129d157600080fd5b823591506129e16020840161261d565b90509250929050565b80356003811061263457600080fd5b600080600060608486031215612a0e57600080fd5b83359250612a1e602085016129ea565b915060408401356001600160401b03811115612a3957600080fd5b612a45868287016127eb565b9150509250925092565b60008060408385031215612a6257600080fd5b82356001600160401b03811115612a7857600080fd5b8301601f81018513612a8957600080fd5b8035612a9481612754565b604051612aa18282612728565b80915082815260208101915060208360051b850101925087831115612ac557600080fd5b6020840193505b82841015612aee57612add8461261d565b825260209384019390910190612acc565b945050505060208301356001600160401b03811115612b0c57600080fd5b612b1885828601612777565b9150509250929050565b600081518084526020840193506020830160005b82811015612b54578151865260209586019590910190600101612b36565b5093949350505050565b6020815260006105cc6020830184612b22565b602080825282518282018190526000918401906040840190835b81811015612bb25783516001600160a01b0316835260209384019390920191600101612b8b565b509095945050505050565b60008060008060808587031215612bd357600080fd5b612bdc8561261d565b9350602085013592506040850135915060608501356001600160401b038111156128f357600080fd5b634e487b7160e01b600052602160045260246000fd5b60038110612c3957634e487b7160e01b600052602160045260246000fd5b9052565b602081016105cf8284612c1b565b600082601f830112612c5c57600080fd5b8135612c6781612754565b604051612c748282612728565b80915082815260208101915060208360051b860101925085831115612c9857600080fd5b602085015b838110156127e15780356001600160401b03811115612cbb57600080fd5b612cca886020838a01016127eb565b84525060209283019201612c9d565b600080600060608486031215612cee57600080fd5b83356001600160401b03811115612d0457600080fd5b612d1086828701612777565b93505060208401356001600160401b03811115612d2c57600080fd5b8401601f81018613612d3d57600080fd5b8035612d4881612754565b604051612d558282612728565b80915082815260208101915060208360051b850101925088831115612d7957600080fd5b6020840193505b82841015612da257612d91846129ea565b825260209384019390910190612d80565b945050505060408401356001600160401b03811115612dc057600080fd5b612a4586828701612c4b565b600060208284031215612dde57600080fd5b6105cc8261261d565b600080600080600060a08688031215612dff57600080fd5b612e088661261d565b9450612e166020870161261d565b9350604086013592506060860135915060808601356001600160401b038111156129a557600080fd5b60008060408385031215612e5257600080fd5b50508035926020909101359150565b60008060408385031215612e7457600080fd5b612e7d8361261d565b915060208301358015158114612e9257600080fd5b809150509250929050565b60008060408385031215612eb057600080fd5b612eb98361261d565b91506129e16020840161261d565b600181811c90821680612edb57607f821691505b602082108103612efb57634e487b7160e01b600052602260045260246000fd5b50919050565b60008351612f138184602088016126af565b835190830190612f278183602088016126af565b01949350505050565b634e487b7160e01b600052603260045260246000fd5b604081526000612f596040830185612b22565b82810360208401526119988185612b22565b634e487b7160e01b600052601160045260246000fd5b818103818111156105cf576105cf612f6b565b8151600090829060208501835b82811015612fc757612fb4848351612c1b565b6020938401939190910190600101612fa1565b509195945050505050565b8151600090829060208501835b82811015612fc7578151845260209384019390910190600101612fdf565b808201808211156105cf576105cf612f6b565b634e487b7160e01b600052601260045260246000fd5b60008261303557613035613010565b500490565b7f416363657373436f6e74726f6c3a206163636f756e74200000000000000000008152600083516130728160178501602088016126af565b7001034b99036b4b9b9b4b733903937b6329607d1b60179184019182015283516130a38160288401602088016126af565b01602801949350505050565b601f82111561095357806000526020600020601f840160051c810160208510156130d65750805b601f840160051c820191505b818110156108c557600081556001016130e2565b81516001600160401b0381111561310f5761310f612712565b6131238161311d8454612ec7565b846130af565b6020601f821160018114613157576000831561313f5750848201515b600019600385901b1c1916600184901b1784556108c5565b600084815260208120601f198516915b828110156131875787850151825560209485019460019092019101613167565b50848210156131a55786840151600019600387901b60f8161c191681555b50505050600190811b01905550565b6001600160a01b0386811682528516602082015260a0604082018190526000906131e090830186612b22565b82810360608401526131f28186612b22565b9050828103608084015261320681856126d3565b98975050505050505050565b60006020828403121561322457600080fd5b81516120ec81612663565b600060033d11156132485760046000803e5060005160e01c5b90565b600060443d10156132595790565b6040513d600319016004823e80513d60248201116001600160401b038211171561328257505090565b80820180516001600160401b0381111561329d575050505090565b3d84016003190182820160200111156132b7575050505090565b6115bc60208285010185612728565b6000826132d5576132d5613010565b500690565b6001600160a01b03868116825285166020820152604081018490526060810183905260a060808201819052600090613314908301846126d3565b979650505050505050565b634e487b7160e01b600052603160045260246000fdfed3889cc5458b268d0544e5534672df1296288ca3f93cbd39bd6f497a5c6228111799cf914cb0cb442ca7c7ac709ee40d0cb89e87351dc08d517fbda27d50c68ba264697066735822122012cfe9be69e694198ae180eac504ee410cd5bad5b62885b39a6e234bd09aa0ed64736f6c634300081a00330000000000000000000000002911b8cb873651cb99f9975e6791edbded598017000000000000000000000000000000000000000000000000000000000000006000000000000000000000000000000000000000000000000000000000000000c0000000000000000000000000000000000000000000000000000000000000000200000000000000000000000008c93bdb1efb73386e7d57af26eea36c5749e7900000000000000000000000002911b8cb873651cb99f9975e6791edbded598017000000000000000000000000000000000000000000000000000000000000000200000000000000000000000008c93bdb1efb73386e7d57af26eea36c5749e7900000000000000000000000002911b8cb873651cb99f9975e6791edbded598017",
        "nonce": "0x37",
        "chainId": "0xfa2"
      },
      "additionalContracts": [],
      "isFixedGasLimit": false
    },
    {
      "hash": "0xa70d6befe600ef22df41a90eac7d9733d63d6e1dccc75936544015fe72239d32",
      "transactionType": "CALL",
      "contractName": "ReputationTokens",
      "contractAddress": "0xf34bd9cf68b66f2d41365c122b2b26fa5ea99dc7",
      "function": "grantRole(bytes32,address)",
      "arguments": [
        "0xfc1552b6aa2747ab03534329d86f6d3131cc2c88af7e48b6486c346619047c1a",
        "0x08c93Bdb1EFb73386E7D57Af26eea36C5749E790"
      ],
      "transaction": {
        "from": "0x08c93bdb1efb73386e7d57af26eea36c5749e790",
        "to": "0xf34bd9cf68b66f2d41365c122b2b26fa5ea99dc7",
        "gas": "0xb3ce",
        "value": "0x0",
        "input": "0x2f2ff15dfc1552b6aa2747ab03534329d86f6d3131cc2c88af7e48b6486c346619047c1a00000000000000000000000008c93bdb1efb73386e7d57af26eea36c5749e790",
        "nonce": "0x38",
        "chainId": "0xfa2"
      },
      "additionalContracts": [],
      "isFixedGasLimit": false
    },
    {
      "hash": "0x05ce09235d166c11422b10634fa4f5dfa76aab0e2121f8b6d32ca0648ffdeff1",
      "transactionType": "CALL",
      "contractName": "ReputationTokens",
      "contractAddress": "0xf34bd9cf68b66f2d41365c122b2b26fa5ea99dc7",
      "function": "grantRole(bytes32,address)",
      "arguments": [
        "0x9f2df0fed2c77648de5860a4cc508cd0818c85b8b8a1ab4ceeef8d981c8956a6",
        "0x08c93Bdb1EFb73386E7D57Af26eea36C5749E790"
      ],
      "transaction": {
        "from": "0x08c93bdb1efb73386e7d57af26eea36c5749e790",
        "to": "0xf34bd9cf68b66f2d41365c122b2b26fa5ea99dc7",
        "gas": "0x22416",
        "value": "0x0",
        "input": "0x2f2ff15d9f2df0fed2c77648de5860a4cc508cd0818c85b8b8a1ab4ceeef8d981c8956a600000000000000000000000008c93bdb1efb73386e7d57af26eea36c5749e790",
        "nonce": "0x39",
        "chainId": "0xfa2"
      },
      "additionalContracts": [],
      "isFixedGasLimit": false
    },
    {
      "hash": "0x0627147f730f1278fcf3d5d8d0a9b103eb4b7838390273cd650d255e9ff02d80",
      "transactionType": "CALL",
      "contractName": "ReputationTokens",
      "contractAddress": "0xf34bd9cf68b66f2d41365c122b2b26fa5ea99dc7",
      "function": "grantRole(bytes32,address)",
      "arguments": [
        "0x832b0668f4756f82d274d4d6d2a66f96a8b25b4353ad5dfdae0e691d7769619b",
        "0x08c93Bdb1EFb73386E7D57Af26eea36C5749E790"
      ],
      "transaction": {
        "from": "0x08c93bdb1efb73386e7d57af26eea36c5749e790",
        "to": "0xf34bd9cf68b66f2d41365c122b2b26fa5ea99dc7",
        "gas": "0x22416",
        "value": "0x0",
        "input": "0x2f2ff15d832b0668f4756f82d274d4d6d2a66f96a8b25b4353ad5dfdae0e691d7769619b00000000000000000000000008c93bdb1efb73386e7d57af26eea36c5749e790",
        "nonce": "0x3a",
        "chainId": "0xfa2"
      },
      "additionalContracts": [],
      "isFixedGasLimit": false
    },
    {
      "hash": "0xc2eca613ae9b4e26d61574999da4fa9736547f001b6381acaed3ed39a76a5ad7",
      "transactionType": "CALL",
      "contractName": "ReputationTokens",
      "contractAddress": "0xf34bd9cf68b66f2d41365c122b2b26fa5ea99dc7",
      "function": "grantRole(bytes32,address)",
      "arguments": [
        "0xfc1552b6aa2747ab03534329d86f6d3131cc2c88af7e48b6486c346619047c1a",
        "0x2911B8cB873651Cb99f9975E6791EDBded598017"
      ],
      "transaction": {
        "from": "0x08c93bdb1efb73386e7d57af26eea36c5749e790",
        "to": "0xf34bd9cf68b66f2d41365c122b2b26fa5ea99dc7",
        "gas": "0xb3ce",
        "value": "0x0",
        "input": "0x2f2ff15dfc1552b6aa2747ab03534329d86f6d3131cc2c88af7e48b6486c346619047c1a0000000000000000000000002911b8cb873651cb99f9975e6791edbded598017",
        "nonce": "0x3b",
        "chainId": "0xfa2"
      },
      "additionalContracts": [],
      "isFixedGasLimit": false
    },
    {
      "hash": "0xcf4a94d2c85aea53beb0e0c0868be3e52eb439ecdd42b8e837254b0f02480fc8",
      "transactionType": "CALL",
      "contractName": "ReputationTokens",
      "contractAddress": "0xf34bd9cf68b66f2d41365c122b2b26fa5ea99dc7",
      "function": "grantRole(bytes32,address)",
      "arguments": [
        "0x9f2df0fed2c77648de5860a4cc508cd0818c85b8b8a1ab4ceeef8d981c8956a6",
        "0x2911B8cB873651Cb99f9975E6791EDBded598017"
      ],
      "transaction": {
        "from": "0x08c93bdb1efb73386e7d57af26eea36c5749e790",
        "to": "0xf34bd9cf68b66f2d41365c122b2b26fa5ea99dc7",
        "gas": "0x1a95f",
        "value": "0x0",
        "input": "0x2f2ff15d9f2df0fed2c77648de5860a4cc508cd0818c85b8b8a1ab4ceeef8d981c8956a60000000000000000000000002911b8cb873651cb99f9975e6791edbded598017",
        "nonce": "0x3c",
        "chainId": "0xfa2"
      },
      "additionalContracts": [],
      "isFixedGasLimit": false
    },
    {
      "hash": "0x6ad6427f2671446b59b85aaf87bf5c46967dcae4b35ab6e591e3cb17a941178f",
      "transactionType": "CALL",
      "contractName": "ReputationTokens",
      "contractAddress": "0xf34bd9cf68b66f2d41365c122b2b26fa5ea99dc7",
      "function": "grantRole(bytes32,address)",
      "arguments": [
        "0x832b0668f4756f82d274d4d6d2a66f96a8b25b4353ad5dfdae0e691d7769619b",
        "0x2911B8cB873651Cb99f9975E6791EDBded598017"
      ],
      "transaction": {
        "from": "0x08c93bdb1efb73386e7d57af26eea36c5749e790",
        "to": "0xf34bd9cf68b66f2d41365c122b2b26fa5ea99dc7",
        "gas": "0x1a95f",
        "value": "0x0",
        "input": "0x2f2ff15d832b0668f4756f82d274d4d6d2a66f96a8b25b4353ad5dfdae0e691d7769619b0000000000000000000000002911b8cb873651cb99f9975e6791edbded598017",
        "nonce": "0x3d",
        "chainId": "0xfa2"
      },
      "additionalContracts": [],
      "isFixedGasLimit": false
    },
    {
      "hash": "0x391f729be59b97bec1e7b1d2d31165c06801bd8c945e13e6bd7742785784364e",
      "transactionType": "CREATE",
      "contractName": "ReputationFaucet",
      "contractAddress": "0xd0b4cf7e773eda3e9157d7b1bbcf1b5f26a4123d",
      "function": null,
      "arguments": [
        "0xF34bd9cf68b66f2D41365c122b2b26fA5eA99Dc7"
      ],
      "transaction": {
        "from": "0x08c93bdb1efb73386e7d57af26eea36c5749e790",
        "gas": "0x82055",
        "value": "0x0",
        "input": "0x6080604052348015600f57600080fd5b5060405161068f38038061068f833981016040819052602c916050565b600080546001600160a01b0319166001600160a01b0392909216919091179055607e565b600060208284031215606157600080fd5b81516001600160a01b0381168114607757600080fd5b9392505050565b6106028061008d6000396000f3fe608060405234801561001057600080fd5b506004361061004c5760003560e01c806301ffc9a7146100515780634e71d92d14610079578063bc197c8114610083578063f23a6e61146100bb575b600080fd5b61006461005f366004610289565b6100da565b60405190151581526020015b60405180910390f35b610081610111565b005b6100a2610091366004610410565b63bc197c8160e01b95945050505050565b6040516001600160e01b03199091168152602001610070565b6100a26100c93660046104c6565b63f23a6e6160e01b95945050505050565b60006001600160e01b03198216630271189760e51b148061010b57506301ffc9a760e01b6001600160e01b03198316145b92915050565b60408051600380825260808201909252600091602082016060803683370190505090506000816000815181106101495761014961051f565b60200260200101818152505060018160018151811061016a5761016a61051f565b60200260200101818152505060028160028151811061018b5761018b61051f565b6020908102919091010152604080516003808252608082019092526000918160200160208202803683370190505090506078816000815181106101d0576101d061051f565b6020026020010181815250506078816001815181106101f1576101f161051f565b6020026020010181815250506078816002815181106102125761021261051f565b6020908102919091010152600054604051632ce0d5df60e21b81526001600160a01b039091169063b383577c90610253903090339087908790600401610571565b600060405180830381600087803b15801561026d57600080fd5b505af1158015610281573d6000803e3d6000fd5b505050505050565b60006020828403121561029b57600080fd5b81356001600160e01b0319811681146102b357600080fd5b9392505050565b80356001600160a01b03811681146102d157600080fd5b919050565b634e487b7160e01b600052604160045260246000fd5b604051601f8201601f1916810167ffffffffffffffff81118282101715610315576103156102d6565b604052919050565b600082601f83011261032e57600080fd5b813567ffffffffffffffff811115610348576103486102d6565b8060051b610358602082016102ec565b9182526020818501810192908101908684111561037457600080fd5b6020860192505b8383101561039657823582526020928301929091019061037b565b9695505050505050565b600082601f8301126103b157600080fd5b813567ffffffffffffffff8111156103cb576103cb6102d6565b6103de601f8201601f19166020016102ec565b8181528460208386010111156103f357600080fd5b816020850160208301376000918101602001919091529392505050565b600080600080600060a0868803121561042857600080fd5b610431866102ba565b945061043f602087016102ba565b9350604086013567ffffffffffffffff81111561045b57600080fd5b6104678882890161031d565b935050606086013567ffffffffffffffff81111561048457600080fd5b6104908882890161031d565b925050608086013567ffffffffffffffff8111156104ad57600080fd5b6104b9888289016103a0565b9150509295509295909350565b600080600080600060a086880312156104de57600080fd5b6104e7866102ba565b94506104f5602087016102ba565b93506040860135925060608601359150608086013567ffffffffffffffff8111156104ad57600080fd5b634e487b7160e01b600052603260045260246000fd5b600081518084526020840193506020830160005b82811015610567578151865260209586019590910190600101610549565b5093949350505050565b6001600160a01b0385811682528416602082015260a06040820181905260009061059d90830185610535565b82810360608401526105af8185610535565b83810360809094019390935250506000815260200194935050505056fea2646970667358221220668a3a8f91d9772a6d96c9236a9b8761c75850fbc93ac7c77094d89a4958bbeb64736f6c634300081a0033000000000000000000000000f34bd9cf68b66f2d41365c122b2b26fa5ea99dc7",
        "nonce": "0x3e",
        "chainId": "0xfa2"
      },
      "additionalContracts": [],
      "isFixedGasLimit": false
    },
    {
      "hash": "0xfa0c38979317b700b1355ec12acbba2b791652d2736601095f0ea990361b9c79",
      "transactionType": "CALL",
      "contractName": "ReputationTokens",
      "contractAddress": "0xf34bd9cf68b66f2d41365c122b2b26fa5ea99dc7",
      "function": "grantRole(bytes32,address)",
      "arguments": [
        "0xfc1552b6aa2747ab03534329d86f6d3131cc2c88af7e48b6486c346619047c1a",
        "0xD0b4cF7E773EDa3E9157d7b1bBcf1B5f26A4123D"
      ],
      "transaction": {
        "from": "0x08c93bdb1efb73386e7d57af26eea36c5749e790",
        "to": "0xf34bd9cf68b66f2d41365c122b2b26fa5ea99dc7",
        "gas": "0x1a95f",
        "value": "0x0",
        "input": "0x2f2ff15dfc1552b6aa2747ab03534329d86f6d3131cc2c88af7e48b6486c346619047c1a000000000000000000000000d0b4cf7e773eda3e9157d7b1bbcf1b5f26a4123d",
        "nonce": "0x3f",
        "chainId": "0xfa2"
      },
      "additionalContracts": [],
      "isFixedGasLimit": false
    },
    {
      "hash": "0xd70bb4e32475acd719b0f9ecb5acf7127c91a0f213e4775755f6fc786fc74ba2",
      "transactionType": "CALL",
      "contractName": "ReputationTokens",
      "contractAddress": "0xf34bd9cf68b66f2d41365c122b2b26fa5ea99dc7",
      "function": "grantRole(bytes32,address)",
      "arguments": [
        "0x9f2df0fed2c77648de5860a4cc508cd0818c85b8b8a1ab4ceeef8d981c8956a6",
        "0xD0b4cF7E773EDa3E9157d7b1bBcf1B5f26A4123D"
      ],
      "transaction": {
        "from": "0x08c93bdb1efb73386e7d57af26eea36c5749e790",
        "to": "0xf34bd9cf68b66f2d41365c122b2b26fa5ea99dc7",
        "gas": "0x1a95f",
        "value": "0x0",
        "input": "0x2f2ff15d9f2df0fed2c77648de5860a4cc508cd0818c85b8b8a1ab4ceeef8d981c8956a6000000000000000000000000d0b4cf7e773eda3e9157d7b1bbcf1b5f26a4123d",
        "nonce": "0x40",
        "chainId": "0xfa2"
      },
      "additionalContracts": [],
      "isFixedGasLimit": false
    },
    {
      "hash": "0xad3e489280d8666eacc5eb0dae00580cf1a7b4722d94f6d36c6e5008e2f7b085",
      "transactionType": "CALL",
      "contractName": "ReputationTokens",
      "contractAddress": "0xf34bd9cf68b66f2d41365c122b2b26fa5ea99dc7",
      "function": "grantRole(bytes32,address)",
      "arguments": [
        "0x832b0668f4756f82d274d4d6d2a66f96a8b25b4353ad5dfdae0e691d7769619b",
        "0xD0b4cF7E773EDa3E9157d7b1bBcf1B5f26A4123D"
      ],
      "transaction": {
        "from": "0x08c93bdb1efb73386e7d57af26eea36c5749e790",
        "to": "0xf34bd9cf68b66f2d41365c122b2b26fa5ea99dc7",
        "gas": "0x1a95f",
        "value": "0x0",
        "input": "0x2f2ff15d832b0668f4756f82d274d4d6d2a66f96a8b25b4353ad5dfdae0e691d7769619b000000000000000000000000d0b4cf7e773eda3e9157d7b1bbcf1b5f26a4123d",
        "nonce": "0x41",
        "chainId": "0xfa2"
      },
      "additionalContracts": [],
      "isFixedGasLimit": false
    },
    {
      "hash": "0xfaa6fff919100c8493b9c3a1d5b5d6f56c0067bde2541623510ce325c27e3e12",
      "transactionType": "CALL",
      "contractName": "ReputationTokens",
      "contractAddress": "0xf34bd9cf68b66f2d41365c122b2b26fa5ea99dc7",
      "function": "updateTokenBatch(uint256[],uint8[],string[])",
      "arguments": [
        "[0, 1, 2]",
        "[1, 2, 0]",
        "[\"ipfs://bafybeiaz55w6kf7ar2g5vzikfbft2qoexknstfouu524l7q3mliutns2u4/0\", \"ipfs://bafybeiaz55w6kf7ar2g5vzikfbft2qoexknstfouu524l7q3mliutns2u4/1\", \"ipfs://bafkreiheocygb3ty4uo3znjw2wz2asjzavn56owlqjoz4cvxvspg64egtq\"]"
      ],
      "transaction": {
        "from": "0x08c93bdb1efb73386e7d57af26eea36c5749e790",
        "to": "0xf34bd9cf68b66f2d41365c122b2b26fa5ea99dc7",
        "gas": "0x7958f",
        "value": "0x0",
        "input": "0x7bbb0807000000000000000000000000000000000000000000000000000000000000006000000000000000000000000000000000000000000000000000000000000000e00000000000000000000000000000000000000000000000000000000000000160000000000000000000000000000000000000000000000000000000000000000300000000000000000000000000000000000000000000000000000000000000000000000000000000000000000000000000000000000000000000000000000001000000000000000000000000000000000000000000000000000000000000000200000000000000000000000000000000000000000000000000000000000000030000000000000000000000000000000000000000000000000000000000000001000000000000000000000000000000000000000000000000000000000000000200000000000000000000000000000000000000000000000000000000000000000000000000000000000000000000000000000000000000000000000000000003000000000000000000000000000000000000000000000000000000000000006000000000000000000000000000000000000000000000000000000000000000e000000000000000000000000000000000000000000000000000000000000001600000000000000000000000000000000000000000000000000000000000000044697066733a2f2f62616679626569617a353577366b66376172326735767a696b6662667432716f65786b6e7374666f75753532346c3771336d6c6975746e733275342f30000000000000000000000000000000000000000000000000000000000000000000000000000000000000000000000000000000000000000000000044697066733a2f2f62616679626569617a353577366b66376172326735767a696b6662667432716f65786b6e7374666f75753532346c3771336d6c6975746e733275342f31000000000000000000000000000000000000000000000000000000000000000000000000000000000000000000000000000000000000000000000042697066733a2f2f6261666b72656968656f6379676233747934756f337a6e6a7732777a3261736a7a61766e35366f776c716a6f7a3463767876737067363465677471000000000000000000000000000000000000000000000000000000000000",
        "nonce": "0x42",
        "chainId": "0xfa2"
      },
      "additionalContracts": [],
      "isFixedGasLimit": false
    },
    {
      "hash": "0xa28372b1e43e5f33042f070ec0f8ad2143ebe2ba6867c4cb50b5cfcf8b9268c9",
      "transactionType": "CALL",
      "contractName": "ReputationTokens",
      "contractAddress": "0xf34bd9cf68b66f2d41365c122b2b26fa5ea99dc7",
      "function": "mintBatch(address,uint256[],uint256[],bytes)",
      "arguments": [
        "0xD0b4cF7E773EDa3E9157d7b1bBcf1B5f26A4123D",
        "[0, 1, 2]",
        "[10000, 10000, 10000]",
        "0x"
      ],
      "transaction": {
        "from": "0x08c93bdb1efb73386e7d57af26eea36c5749e790",
        "to": "0xf34bd9cf68b66f2d41365c122b2b26fa5ea99dc7",
        "gas": "0xc3900",
        "value": "0x0",
        "input": "0x1f7fdffa000000000000000000000000d0b4cf7e773eda3e9157d7b1bbcf1b5f26a4123d000000000000000000000000000000000000000000000000000000000000008000000000000000000000000000000000000000000000000000000000000001000000000000000000000000000000000000000000000000000000000000000180000000000000000000000000000000000000000000000000000000000000000300000000000000000000000000000000000000000000000000000000000000000000000000000000000000000000000000000000000000000000000000000001000000000000000000000000000000000000000000000000000000000000000200000000000000000000000000000000000000000000000000000000000000030000000000000000000000000000000000000000000000000000000000002710000000000000000000000000000000000000000000000000000000000000271000000000000000000000000000000000000000000000000000000000000027100000000000000000000000000000000000000000000000000000000000000000",
        "nonce": "0x43",
        "chainId": "0xfa2"
      },
      "additionalContracts": [],
      "isFixedGasLimit": false
    },
    {
      "hash": "0x398a76cc17c90be2aac9b2b78b1a8420d07716bec5ff16c39cf393f8c51a90aa",
      "transactionType": "CREATE",
      "contractName": "Hats",
      "contractAddress": "0xa8a4d5794b140fd9e16dfbef675f2d8521729e4c",
      "function": null,
      "arguments": [
        "\"v0.1\"",
        "\"Default IFPS\""
      ],
      "transaction": {
        "from": "0x08c93bdb1efb73386e7d57af26eea36c5749e790",
        "gas": "0x5350cf",
        "value": "0x0",
        "input": "0x608060405234801561001057600080fd5b50604051614cbf380380614cbf83398101604081905261002f91610109565b600461003b83826101fb565b50600661004882826101fb565b5050506102b9565b634e487b7160e01b600052604160045260246000fd5b600082601f83011261007757600080fd5b81516001600160401b0381111561009057610090610050565b604051601f8201601f19908116603f011681016001600160401b03811182821017156100be576100be610050565b6040528181528382016020018510156100d657600080fd5b60005b828110156100f5576020818601810151838301820152016100d9565b506000918101602001919091529392505050565b6000806040838503121561011c57600080fd5b82516001600160401b0381111561013257600080fd5b61013e85828601610066565b602085015190935090506001600160401b0381111561015c57600080fd5b61016885828601610066565b9150509250929050565b600181811c9082168061018657607f821691505b6020821081036101a657634e487b7160e01b600052602260045260246000fd5b50919050565b601f8211156101f657806000526020600020601f840160051c810160208510156101d35750805b601f840160051c820191505b818110156101f357600081556001016101df565b50505b505050565b81516001600160401b0381111561021457610214610050565b610228816102228454610172565b846101ac565b6020601f82116001811461025c57600083156102445750848201515b600019600385901b1c1916600184901b1784556101f3565b600084815260208120601f198516915b8281101561028c578785015182556020948501946001909201910161026c565b50848210156102aa5786840151600019600387901b60f8161c191681555b50505050600190811b01905550565b6149f7806102c86000396000f3fe608060405234801561001057600080fd5b50600436106103a35760003560e01c806382afd23b116101e9578063d0221ee01161010f578063e985e9c5116100ad578063fb2849171161007c578063fb284917146108d2578063fb2aaa4c146108ff578063fc3e05a414610912578063fd8a71631461092257600080fd5b8063e985e9c514610870578063f242432a1461089e578063f737401e146108ac578063f8f353b6146108bf57600080fd5b8063d80a8434116100e9578063d80a843414610824578063d9fd995b14610837578063e05209ff1461084a578063e33dd5c91461085d57600080fd5b8063d0221ee0146107d6578063d3272ba8146107e9578063d395acf8146107fc57600080fd5b8063a2be079b11610187578063b052925e11610156578063b052925e1461077d578063b56f756214610790578063c43dc177146107a3578063cead6304146107b657600080fd5b8063a2be079b14610709578063a4a1f06c14610737578063ac9650d81461074a578063afaae55a1461076a57600080fd5b80639d6ccb9f116101c35780639d6ccb9f146106c25780639fe3b510146106d5578063a22cb465146106e8578063a29e8fa6146106f657600080fd5b806382afd23b146106735780638c076077146106865780639aa22f6d146106af57600080fd5b8063499c05e8116102ce578063641f776e1161026c578063756329a41161023b578063756329a4146106275780637903e56b1461063a5780637a9df89f1461064d57806380198fad1461066057600080fd5b8063641f776e146105cc5780636743175a146105df5780637178fb51146105f257806374f82e301461061f57600080fd5b806354a1826c116102a857806354a1826c1461054f57806357f607721461056257806359701e44146105a65780635d5eb5af146105b957600080fd5b8063499c05e8146104f45780634e1273f41461051c57806352a6b2651461053c57600080fd5b80631a64dfad11610346578063378a848911610315578063378a8489146104a85780633fa9d544146104bb5780634352409a146104ce57806345fffac8146104e157600080fd5b80631a64dfad1461046157806321dbb8cb146104745780632eb2c2d614610487578063376792b91461049557600080fd5b806306fdde031161038257806306fdde03146104065780630b328e261461041b5780630e89341c1461043b5780631183a8c01461044e57600080fd5b8062fdd58e146103a85780630109f854146103ce57806301ffc9a7146103e3575b600080fd5b6103bb6103b636600461379a565b610935565b6040519081526020015b60405180910390f35b6103e16103dc3660046137c4565b610978565b005b6103f66103f13660046137f0565b610a60565b60405190151581526020016103c5565b61040e610a97565b6040516103c5919061386a565b6103bb610429366004613891565b60036020526000908152604090205481565b61040e6104493660046138ac565b610b25565b6103bb61045c3660046138ac565b610b30565b6103bb61046f36600461390d565b610b6a565b6103e1610482366004613991565b610bd3565b6103e16103a33660046139f8565b6103e16104a3366004613abc565b610cbd565b6103e16104b6366004613abc565b610d28565b6103f66104c93660046137c4565b610dc0565b6103f66104dc36600461379a565b610f1b565b6103f66104ef3660046138ac565b610f30565b6105076105023660046138ac565b610f6d565b60405163ffffffff90911681526020016103c5565b61052f61052a366004613b4a565b6110e9565b6040516103c59190613bb9565b6103f661054a366004613b4a565b6111d0565b6103f661055d36600461379a565b611257565b61058e6105703660046138ac565b6000908152600760205260409020600101546001600160a01b031690565b6040516001600160a01b0390911681526020016103c5565b6103e16105b43660046137c4565b6113c3565b6103bb6105c7366004613991565b611479565b6103f66105da3660046137c4565b611506565b6103f66105ed3660046138ac565b61162c565b6105076106003660046138ac565b600090815260076020526040902054600160c01b900463ffffffff1690565b61040e6116b4565b6103e16106353660046138ac565b6116c1565b6103f6610648366004613cb6565b611762565b6103e161065b3660046138ac565b6118d2565b6103e161066e366004613e1a565b61190a565b6103f66106813660046138ac565b6119e6565b61058e6106943660046138ac565b6000908152600760205260409020546001600160a01b031690565b6105076106bd3660046138ac565b6119fe565b6105076106d0366004613891565b611a15565b6103f66106e3366004613e44565b611a45565b6103e16103a3366004613e70565b6103f6610704366004613e44565b611a82565b6103f66107173660046137c4565b600860209081526000928352604080842090915290825290205460ff1681565b6103e1610745366004613e9a565b611ade565b61075d610758366004613ed6565b611c69565b6040516103c59190613f17565b6103f6610778366004613f7c565b611cea565b6103bb61078b366004613fc9565b611d38565b6103f661079e36600461379a565b611e44565b6103f66107b136600461408b565b611f8b565b6103bb6107c4366004613891565b60026020526000908152604090205481565b6103e16107e4366004613e44565b611fd0565b6103f66107f73660046138ac565b612036565b61080f61080a3660046138ac565b61207c565b6040516103c5999897969594939291906140ae565b6103f661083236600461379a565b6121a8565b6103e1610845366004614129565b6121c2565b6103bb610858366004613991565b612272565b61040e61086b3660046138ac565b6122a1565b6103f661087e366004614174565b600160209081526000928352604080842090915290825290205460ff1681565b6103e16103a3366004614190565b6103e16108ba366004614129565b61263f565b6103bb6108cd366004614207565b6126ef565b6105076108e03660046138ac565b600090815260076020526040902054600160a01b900463ffffffff1690565b61050761090d3660046138ac565b612753565b6005546105079063ffffffff1681565b6103f66109303660046138ac565b6127b2565b600081815260076020526040812061094d81846127cc565b801561095f575061095f8482856128e0565b156109715761096e8484612a64565b91505b5092915050565b6001600160a01b03811661099f5760405163d92e233d60e01b815260040160405180910390fd5b6109a882612a89565b60008281526007602052604090206109bf81612ab9565b6109dc57604051635dbbc87360e11b815260040160405180910390fd5b6000806109e98386612acf565b9150915081156109ff576109fd8582612be1565b505b6001830180546001600160a01b0319166001600160a01b0386169081179091556040805187815260208101929092527ff68bc34e5f23b18f8e3a63ff51c021c8fbc9266113a63a4c73a66b4ad9033638910160405180910390a15050505050565b60006301ffc9a760e01b6001600160e01b031983161480610a9157506303a24d0760e21b6001600160e01b03198316145b92915050565b60048054610aa49061423e565b80601f0160208091040260200160405190810160405280929190818152602001828054610ad09061423e565b8015610b1d5780601f10610af257610100808354040283529160200191610b1d565b820191906000526020600020905b815481529060010190602001808311610b0057829003601f168201915b505050505081565b6060610a9182612c5a565b6000818152600760205260408120548190610b5790600160e01b900461ffff166001614288565b9050610b6383826126ef565b9392505050565b6005805460009160e0918390610b859063ffffffff166142a2565b91906101000a81548163ffffffff021916908363ffffffff160217905563ffffffff16901b9050610bc0818686600160008060008a8a612e8a565b610bca8682612f90565b95945050505050565b610bdc82612a89565b6000828152600760205260409020610bf381612ab9565b610c1057604051635dbbc87360e11b815260040160405180910390fd5b805463ffffffff600160c01b90910481169083161015610c435760405163d2955d3b60e01b815260040160405180910390fd5b805463ffffffff838116600160a01b9092041614610cb857805463ffffffff60a01b1916600160a01b63ffffffff84169081029190911782556040805185815260208101929092527fb1141d53812d55ffe5a4ca05e686728ebe52d8e4fc66057d6e54724c01a77f5691015b60405180910390a15b505050565b6001600160e01b031960e089901b16610cd581612a89565b600e610ce089612753565b63ffffffff161015610d0457610cff610cfa8960016126ef565b612a89565b610d0d565b610d0d8861301f565b610d1d898989898989898961305b565b505050505050505050565b600e610d3388612753565b63ffffffff161015610d5257610d4d610cfa8860016126ef565b610d5b565b610d5b8761301f565b63ffffffff88166000908152600260205260409020548714610d9057604051635e598f5160e11b815260040160405180910390fd5b63ffffffff8816600090815260026020526040812055610db6888888888888888861305b565b5050505050505050565b6000828152600760205260408082205490516001600160a01b038481166024830152604482018690528392839283928392169060640160408051601f198184030181529181526020820180516001600160e01b0316635eb41c3960e11b17905251610e2b91906142e3565b600060405180830381855afa9150503d8060008114610e66576040519150601f19603f3d011682016040523d82523d6000602084013e610e6b565b606091505b5091509150818015610e7e575080516040145b15610ee95760008082806020019051810190610e9a91906142ff565b91509150600282108015610eae5750600281105b15610ee95780600114610ec2576000610ec5565b60015b9450848015610ed45750816001145b610edf576000610ee2565b60015b9550610f02565b6040516345ebc5ad60e11b815260040160405180910390fd5b5050610f1087878686613368565b979650505050505050565b600080610f288484610935565b119392505050565b6000610f3b826127b2565b8015610a91575060036000610f4f846119fe565b63ffffffff1681526020810191909152604001600020541592915050565b60006001600160e01b0382168103610f8757506000919050565b6001600160d01b038216600003610fa057506001919050565b6001600160c01b038216600003610fb957506002919050565b6001600160b01b038216600003610fd257506003919050565b6001600160a01b038216600003610feb57506004919050565b71ffffffffffffffffffffffffffffffffffff821660000361100f57506005919050565b6fffffffffffffffffffffffffffffffff821660000361103157506006919050565b6dffffffffffffffffffffffffffff821660000361105157506007919050565b6001600160601b03821660000361106a57506008919050565b69ffffffffffffffffffff821660000361108657506009919050565b6001600160401b03821660000361109f5750600a919050565b65ffffffffffff82166000036110b75750600b919050565b63ffffffff82166000036110cd5750600c919050565b61ffff82166000036110e15750600d919050565b50600e919050565b606083821461110b5760405163fc5221bd60e01b815260040160405180910390fd5b836001600160401b0381111561112357611123613bfc565b60405190808252806020026020018201604052801561114c578160200160208202803683370190505b50905060005b848110156111c7576111a286868381811061116f5761116f614323565b90506020020160208101906111849190614339565b85858481811061119657611196614323565b90506020020135610935565b8282815181106111b4576111b4614323565b6020908102919091010152600101611152565b50949350505050565b6000838281146111f35760405163fc5221bd60e01b815260040160405180910390fd5b60005b8181101561124a5761124187878381811061121357611213614323565b9050602002013586868481811061122c5761122c614323565b90506020020160208101906105da9190614339565b506001016111f6565b5060019695505050505050565b6000818152600760205260408082205490516001600160a01b038581166024830152604482018590528392839291169060640160408051601f198184030181529181526020820180516001600160e01b0316635eb41c3960e11b179052516112bf91906142e3565b600060405180830381855afa9150503d80600081146112fa576040519150601f19603f3d011682016040523d82523d6000602084013e6112ff565b606091505b5091509150818015611312575080516040145b15611391576000808280602001905181019061132e91906142ff565b915091506002821080156113425750600281105b156113605780600114611356576000611359565b60015b945061138a565b60008681526008602090815260408083206001600160a01b038b16845290915290205460ff161594505b50506113bb565b60008481526008602090815260408083206001600160a01b038916845290915290205460ff161592505b505092915050565b6001600160a01b0381166113ea5760405163d92e233d60e01b815260040160405180910390fd5b6113f382612a89565b600082815260076020526040902061140a81612ab9565b61142757604051635dbbc87360e11b815260040160405180910390fd5b80546001600160a01b0319166001600160a01b03831690811782556040805185815260208101929092527f5f59e4feecec6992840f6f7c313415b21889d4445ea82fefd7f620aeb194461d9101610caf565b60008060036000611489866119fe565b63ffffffff1663ffffffff168152602001908152602001600020549050806000036114c0576114b88484612272565b915050610a91565b60006114d061090d866000612272565b90508363ffffffff168163ffffffff16116114fc576114f3856108588387614354565b92505050610a91565b610bca8285611479565b60008281526007602052604081208054600160a01b900463ffffffff16820361154a57604051632b88c60560e21b8152600481018590526024015b60405180910390fd5b61155483856121a8565b61157157604051637c75aa6f60e11b815260040160405180910390fd5b61157b81856127cc565b6115985760405163e629aba360e01b815260040160405180910390fd5b6115a184612a89565b805463ffffffff600160a01b82048116600160c01b90920416106115db5760405163019b2d5760e31b815260048101859052602401611541565b60006115e78486612a64565b11156116185760405163643d208360e01b81526001600160a01b038416600482015260248101859052604401611541565b6116228385612f90565b5060019392505050565b6000611637826127b2565b1561164457506001919050565b600061164f83610f6d565b905060008061165f600184614354565b63ffffffff1690505b80156116a95761167981600e614370565b611684906010614383565b85901c91508161ffff166000036116a057506000949350505050565b60001901611668565b506001949350505050565b60068054610aa49061423e565b6116ca81612a89565b60008181526007602052604090206116e181612ab9565b6116fe57604051635dbbc87360e11b815260040160405180910390fd5b6001810180546001600160a01b038116600160a01b918290046bbfffffffffffffffffffffff169091021790556040518281527f10bb2a0010ffb3a037a886128a37f6574be73acb0ee505c37a4f12e8d290ed8e9060200160405180910390a15050565b60008b818b821480156117745750818a145b80156117805750885182145b801561178c5750875182145b801561179757508186145b80156117a257508184145b9050806117c25760405163fc5221bd60e01b815260040160405180910390fd5b5060005b818110156118bd576118b48f8f838181106117e3576117e3614323565b905060200201358e8e848181106117fc576117fc614323565b905060200281019061180e919061439a565b8e8e8681811061182057611820614323565b90506020020160208101906118359190613891565b8d868151811061184757611847614323565b60200260200101518d878151811061186157611861614323565b60200260200101518d8d8981811061187b5761187b614323565b905060200201602081019061189091906143e0565b8c8c8a8181106118a2576118a2614323565b905060200281019061078b919061439a565b506001016117c6565b5060019e9d5050505050505050505050505050565b60016118de3383612a64565b10156118fd5760405163ae9f0ba560e01b815260040160405180910390fd5b6119073382613445565b50565b6001600160e01b031960e083901b1661192281612a89565b6001600160a01b038216158061193f575061193d8282610f1b565b155b1561195d576040516314c1a0e360e31b815260040160405180910390fd5b63ffffffff83166000818152600360209081526040808320839055600282528083208390558483526007825280832080546001600160a01b031990811682556001820180549091169055815194855291840192909252917fd89812e6ebd66026da23b9c10923f8ec2d47c2f4bea260250e66d05ab76f6b8991015b60405180910390a150505050565b6000818152600760205260408120610a9190836127cc565b6000611a0c600e6010614383565b9190911c919050565b63ffffffff8116600090815260036020526040812054808203611a39575090919050565b610b636106d0826119fe565b600080611a5184611a15565b90506000611a5e846119fe565b90506000611a6b82611a15565b63ffffffff93841693169290921495945050505050565b600081600003611a9457506001610a91565b6000611a9f836119fe565b90508063ffffffff168463ffffffff1603611abe576000915050610a91565b63ffffffff8116600090815260036020526040902054610bca8582611a82565b611ae783612a89565b611af083610f30565b611b28576000838152600760205260409020611b0b90612ab9565b611b2857604051635dbbc87360e11b815260040160405180910390fd5b6001611b348385612a64565b1015611b535760405163ae9f0ba560e01b815260040160405180910390fd5b6000611b5f8285612a64565b1115611b905760405163643d208360e01b81526001600160a01b038216600482015260248101849052604401611541565b611b9a81846121a8565b611bb757604051637c75aa6f60e11b815260040160405180910390fd5b6000838152600760205260409020611bcf90846127cc565b611bec5760405163e629aba360e01b815260040160405180910390fd5b6001600160a01b038281166000818152602081815260408083208884528252808320839055938516808352828252848320888452825291849020600190819055845188815291820152909233917fc3d58168c5ae7397731d063d5bbf3d657854427343f4c083240f7aacaa2d0f62910160405180910390a4505050565b606060206000528160205281611c7f5760406000f35b60408260051b8085604037818101905b82518601604082018135602083018237600080833583305af4611cb6573d6000803e3d6000fd5b8285526020850194503d81523d6000602083013e50503d01603f0167ffffffffffffffe016818310611c8f57604081016000f35b600084815260076020526040812080546001600160a01b03163314611d22576040516345ebc5ad60e11b815260040160405180910390fd5b611d2e86868686613368565b9695505050505050565b600061ffff8a1615611d5d57604051630f9244b960e31b815260040160405180910390fd5b6001600160a01b038616611d845760405163d92e233d60e01b815260040160405180910390fd5b6001600160a01b038516611dab5760405163d92e233d60e01b815260040160405180910390fd5b611db48a61162c565b611dd157604051630b43a06560e41b815260040160405180910390fd5b611dda8a610b30565b9050611de581612a89565b611df6818a8a8a8a8a8a8a8a612e8a565b60008a81526007602052604090208054601c90611e1d90600160e01b900461ffff166143fb565b91906101000a81548161ffff021916908361ffff1602179055509998505050505050505050565b6000806000611e52846127b2565b15611ec05760036000611e64866119fe565b63ffffffff1663ffffffff16815260200190815260200160002054915081600003611e93576114f38585610f1b565b611e9d8583610f1b565b15611ead57600192505050610a91565b611eb682610f6d565b9050819350611ed8565b6001611ecb85610f6d565b611ed59190614354565b90505b63ffffffff811615611f0b57611ef2856104dc8684612272565b15611f0257600192505050610a91565b60001901611ed8565b611f1a856104dc866000612272565b15611f2a57600192505050610a91565b60036000611f37866119fe565b63ffffffff1663ffffffff16815260200190815260200160002054915081600003611f6757600092505050610a91565b611f718583610f1b565b15611f8157600192505050610a91565b610bca8583611e44565b600082815260076020526040812060018101546001600160a01b03163314611fc65760405163eaca8b6560e01b815260040160405180910390fd5b61096e8484612be1565b6001600160e01b031960e083901b16611fe881612a89565b63ffffffff8316600081815260026020908152604091829020859055815192835282018490527f81ae7626a9656578e59b92a7575fdbd9cfe59e467c1e88334e305e0b428e76669101610caf565b600081815260076020526040812081806120508386612acf565b91509150816120725760405163eaca8b6560e01b815260040160405180910390fd5b610bca8582612be1565b60606000806000806060600080600080600760008c815260200190815260200160002090508060020180546120b09061423e565b80601f01602080910402602001604051908101604052809291908181526020018280546120dc9061423e565b80156121295780601f106120fe57610100808354040283529160200191612129565b820191906000526020600020905b81548152906001019060200180831161210c57829003601f168201915b505084546001860154949e5063ffffffff600160a01b820481169e50600160c01b8204169c506001600160a01b039081169b5093909316985061217192508d91506122a19050565b8154909550600160e01b900461ffff16935061218c81612ab9565b9250612198818c6127cc565b9150509193959799909294969850565b6000818152600760205260408120610b63908490846128e0565b611b588111156121e557604051631623655b60e31b815260040160405180910390fd5b6121ee83612a89565b600083815260076020526040902061220584610f30565b61222f5761221281612ab9565b61222f57604051635dbbc87360e11b815260040160405180910390fd5b6003810161223e838583614461565b507f26bb402a5ddddf109a54486ab4d62a69ae00966cbc94c57075787f70bf9cba6c8484846040516119d893929190614549565b60008061228663ffffffff8416600e614370565b612291906010614383565b600019901b939093169392505050565b600081815260076020526040812060038101805460609391906122c39061423e565b80601f01602080910402602001604051908101604052809291908181526020018280546122ef9061423e565b801561233c5780601f106123115761010080835404028352916020019161233c565b820191906000526020600020905b81548152906001019060200180831161231f57829003601f168201915b50505050509050600081511115612354579392505050565b600061235f85612753565b63ffffffff16905080600003612404576006805461237c9061423e565b80601f01602080910402602001604051908101604052809291908181526020018280546123a89061423e565b80156123f55780601f106123ca576101008083540402835291602001916123f5565b820191906000526020600020905b8154815290600101906020018083116123d857829003601f168201915b50505050509350505050919050565b600080612412600184614370565b90505b80156124e6576124258782611479565b60008181526007602052604090206003810180549197509193506124489061423e565b80601f01602080910402602001604051908101604052809291908181526020018280546124749061423e565b80156124c15780601f10612496576101008083540402835291602001916124c1565b820191906000526020600020905b8154815290600101906020018083116124a457829003601f168201915b505050505093506000845111156124dd57509195945050505050565b60001901612415565b506124f2866000611479565b60008181526007602052604090206003810180549196509192506125159061423e565b80601f01602080910402602001604051908101604052809291908181526020018280546125419061423e565b801561258e5780601f106125635761010080835404028352916020019161258e565b820191906000526020600020905b81548152906001019060200180831161257157829003601f168201915b505050505092506000835111156125a9575090949350505050565b600680546125b69061423e565b80601f01602080910402602001604051908101604052809291908181526020018280546125e29061423e565b801561262f5780601f106126045761010080835404028352916020019161262f565b820191906000526020600020905b81548152906001019060200180831161261257829003601f168201915b5050505050945050505050919050565b611b5881111561266257604051631623655b60e31b815260040160405180910390fd5b61266b83612a89565b600083815260076020526040902061268284610f30565b6126ac5761268f81612ab9565b6126ac57604051635dbbc87360e11b815260040160405180910390fd5b600281016126bb838583614461565b507fb8350431af3841b22f977d0e8fd4be94669ef68e2db1d7f02a731d5d09ed44cc8484846040516119d893929190614549565b60008060005b600e81101561273957600019602060108302011c915084821660000361273157806001600e03036010028461ffff16901b851792505050610a91565b6001016126f5565b50604051630f9244b960e31b815260040160405180910390fd5b600061275e82610f6d565b905060006003600061276f856119fe565b63ffffffff168152602081019190915260400160002054905080156127ac5761279781612753565b6127a2836001614563565b610b639190614563565b50919050565b60008082118015610a915750506001600160e01b03161590565b600182015460405160248101839052600091829182916001600160a01b03169060440160408051601f198184030181529181526020820180516001600160e01b0316634b1047bd60e11b1790525161282491906142e3565b600060405180830381855afa9150503d806000811461285f576040519150601f19603f3d011682016040523d82523d6000602084013e612864565b606091505b5091509150818015612877575080516020145b156128c85760006128878261457f565b9050600081900361289b57600093506128c2565b806001036128ac57600193506128c2565b600180870154600160a01b9004605f1c16151593505b506113bb565b600180860154600160a01b9004605f1c161515610bca565b81546040516001600160a01b03858116602483015260448201849052600092839283929091169060640160408051601f198184030181529181526020820180516001600160e01b0316635eb41c3960e11b1790525161293f91906142e3565b600060405180830381855afa9150503d806000811461297a576040519150601f19603f3d011682016040523d82523d6000602084013e61297f565b606091505b5091509150818015612992575080516040145b15612a31576000806000838060200190518101906129b091906142ff565b915091506002821080156129c45750600281105b156129ff57806001146129d85760006129db565b60015b92508280156129ea5750816001145b6129f55760006129f8565b60015b9550612a29565b60008781526008602090815260408083206001600160a01b038d16845290915290205460ff161595505b505050612a5b565b60008481526008602090815260408083206001600160a01b038a16845290915290205460ff161592505b50509392505050565b6001600160a01b03909116600090815260208181526040808320938352929052205490565b612a933382611e44565b6119075760405163f921ec0160e01b815233600482015260248101829052604401611541565b60010154600160a01b90046001605e1b16151590565b600080600083604051602401612ae791815260200190565b60408051601f198184030181529181526020820180516001600160e01b0316634b1047bd60e11b179052600187015490519192506060916001600160a01b0390911690612b359084906142e3565b600060405180830381855afa9150503d8060008114612b70576040519150601f19603f3d011682016040523d82523d6000602084013e612b75565b606091505b509094509050838015612b89575080516020145b15612bd357600081806020019051810190612ba491906145a3565b905080600003612bb75760009350612bcd565b80600103612bc85760019350612bcd565b600094505b50612bd8565b600093505b50509250929050565b6000828152600760205260408120600180820154600160a01b9004605f1c16151515158315151461097157612c1681846134d4565b6040805185815284151560208201527fd07f9843f67faeb66cef933eec38bef71b53ef4086a2aa2a5b109b6ee531c751910160405180910390a15060019392505050565b6000818152600760205260408120606091612c7484610f30565b15612c80575082612c9c565b612c99846001612c8f87612753565b6105c79190614354565b90505b6000612cb5612caa866119fe565b63ffffffff16613539565b612cbe86613539565b612cc987602061357d565b604051602001612cdb939291906145bc565b60405160208183030381529060405290506000612cf884876127cc565b612d225760405180604001604052806008815260200167696e61637469766560c01b815250612d42565b6040518060400160405280600681526020016561637469766560d01b8152505b8454612d5a90600160c01b900463ffffffff16613539565b8554612d7290600160a01b900463ffffffff16613539565b612d7b86613539565b612d8687602061357d565b8854612d9a906001600160a01b031661360f565b60018a0154612db1906001600160a01b031661360f565b612dba8b612ab9565b612de1576040518060400160405280600581526020016466616c736560d81b815250612dff565b604051806040016040528060048152602001637472756560e01b8152505b604051602001612e1698979695949392919061465f565b6040516020818303038152906040529050612e6084600201612e37886122a1565b8484604051602001612e4c94939291906147e2565b604051602081830303815290604052613676565b604051602001612e709190614914565b604051602081830303815290604052945050505050919050565b600089815260076020526040902060028101612ea7898b83614461565b5080546001600160a01b038088166001600160a01b031963ffffffff8b16600160a01b0281166001600160c01b0319909416939093171783556001830180549188169190921617905560038101612eff838583614461565b5083612f0f576001605f1b612f15565b6003605e1b5b8160010160146101000a8154816001600160601b0302191690836001600160601b031602179055507f4d38ad12136291322128027bb8c3af7db2261be395032c1d26dd0ad20cf294158a8a8a8a8a8a8a8a8a604051612f7c99989796959493929190614959565b60405180910390a150505050505050505050565b6001600160a01b038216600081815260208181526040808320858452825280832060019081905560078352818420805463ffffffff600160c01b808304821685019091160263ffffffff60c01b1990911617905581518681529283015233917fc3d58168c5ae7397731d063d5bbf3d657854427343f4c083240f7aacaa2d0f6291015b60405180910390a45050565b6130293382611e44565b15801561303d575061303b3382610f1b565b155b156119075760405163bc3a32ff60e01b815260040160405180910390fd5b6130658888611a82565b613082576040516310084a3f60e21b815260040160405180910390fd5b63ffffffff8816600090815260036020526040902054801561313057600060e06130ab8b611a15565b63ffffffff16901b90506130bf3382610f1b565b613107576001600160e01b0319808a169083168082148015906130e25750828214155b15613100576040516344ce0dd360e11b815260040160405180910390fd5b505061312e565b6131118a8a611a45565b61312e576040516344ce0dd360e11b815260040160405180910390fd5b505b506001600160e01b031960e089901b1660008181526007602052604090206001600160a01b038816156131b35780546001600160a01b0319166001600160a01b03891690811782556040805184815260208101929092527f5f59e4feecec6992840f6f7c313415b21889d4445ea82fefd7f620aeb194461d910160405180910390a15b6001600160a01b0387161561321d576001810180546001600160a01b0319166001600160a01b0389169081179091556040805184815260208101929092527ff68bc34e5f23b18f8e3a63ff51c021c8fbc9266113a63a4c73a66b4ad9033638910160405180910390a15b84801561329357611b5881111561324757604051631623655b60e31b815260040160405180910390fd5b60028201613256878983614461565b507fb8350431af3841b22f977d0e8fd4be94669ef68e2db1d7f02a731d5d09ed44cc83888860405161328a93929190614549565b60405180910390a15b5082801561330a57611b588111156132be57604051631623655b60e31b815260040160405180910390fd5b600382016132cd858783614461565b507f26bb402a5ddddf109a54486ab4d62a69ae00966cbc94c57075787f70bf9cba6c83868660405161330193929190614549565b60405180910390a15b63ffffffff8b166000818152600360209081526040918290208d9055815192835282018c90527fd89812e6ebd66026da23b9c10923f8ec2d47c2f4bea260250e66d05ab76f6b89910160405180910390a15050505050505050505050565b6000806133758587612a64565b111561339557821580613386575081155b15613395576133958486613445565b60008581526008602090815260408083206001600160a01b038816845290915290205460ff1615158215150361343d575060008481526008602090815260408083206001600160a01b038716808552908352928190208054851560ff19909116811790915581518881529283019390935291158183015290516001917ff95db9732f1ede51ad19afa6ee380168a1be58df547533ff009c18ceacd01ef5919081900360600190a15b949350505050565b6001600160a01b038216600081815260208181526040808320858452825280832083905560078252808320805463ffffffff60c01b198116600160c01b9182900463ffffffff9081166000190116909102179055805185815260019281019290925291929133917fc3d58168c5ae7397731d063d5bbf3d657854427343f4c083240f7aacaa2d0f629101613013565b801561350a575060010180546001600160a01b0381166001605f1b600160a01b928390046001600160601b031617909102179055565b5060010180546001600160a01b038116600160a01b918290046b7fffffffffffffffffffffff16909102179055565b606060a06040510180604052602081039150506000815280825b600183039250600a81066030018353600a9004806135535750819003601f19909101908152919050565b60408051601f196062600185901b01811690910191829052600091019081526f30313233343536373839616263646566600f5280835b600f8116516001198401936000190153600f8160041c165183536000199093019260081c836135b35780156135f057632194895a6000526004601cfd5b50613078601f1983015281900360020160211990910190815292915050565b60408051606001908190526f30313233343536373839616263646566600f526014825b600f8116516001198401936000190153600f8160041c165183536000199091019060081c81613632575050613078601f19820152602a602119909101908152919050565b6060610a9182600080606083518015613776576003600282010460021b60405192507f4142434445464748494a4b4c4d4e4f505152535455565758595a616263646566601f526102308515027f6768696a6b6c6d6e6f707172737475767778797a303132333435363738392d5f03603f52602083018181015b6003880197508751603f8160121c16518353603f81600c1c16516001840153603f8160061c16516002840153603f8116516003840153506004820191508082106136ef576003840686801561374f57600182148215150185038752613767565b603d821515850353603d6001831460011b8503538487525b5050601f01601f191660405250505b509392505050565b80356001600160a01b038116811461379557600080fd5b919050565b600080604083850312156137ad57600080fd5b6137b68361377e565b946020939093013593505050565b600080604083850312156137d757600080fd5b823591506137e76020840161377e565b90509250929050565b60006020828403121561380257600080fd5b81356001600160e01b031981168114610b6357600080fd5b60005b8381101561383557818101518382015260200161381d565b50506000910152565b6000815180845261385681602086016020860161381a565b601f01601f19169290920160200192915050565b602081526000610b63602083018461383e565b803563ffffffff8116811461379557600080fd5b6000602082840312156138a357600080fd5b610b638261387d565b6000602082840312156138be57600080fd5b5035919050565b60008083601f8401126138d757600080fd5b5081356001600160401b038111156138ee57600080fd5b60208301915083602082850101111561390657600080fd5b9250929050565b60008060008060006060868803121561392557600080fd5b61392e8661377e565b945060208601356001600160401b0381111561394957600080fd5b613955888289016138c5565b90955093505060408601356001600160401b0381111561397457600080fd5b613980888289016138c5565b969995985093965092949392505050565b600080604083850312156139a457600080fd5b823591506137e76020840161387d565b60008083601f8401126139c657600080fd5b5081356001600160401b038111156139dd57600080fd5b6020830191508360208260051b850101111561390657600080fd5b60008060008060008060008060a0898b031215613a1457600080fd5b613a1d8961377e565b9750613a2b60208a0161377e565b965060408901356001600160401b03811115613a4657600080fd5b613a528b828c016139b4565b90975095505060608901356001600160401b03811115613a7157600080fd5b613a7d8b828c016139b4565b90955093505060808901356001600160401b03811115613a9c57600080fd5b613aa88b828c016138c5565b999c989b5096995094979396929594505050565b60008060008060008060008060c0898b031215613ad857600080fd5b613ae18961387d565b975060208901359650613af660408a0161377e565b9550613b0460608a0161377e565b945060808901356001600160401b03811115613b1f57600080fd5b613b2b8b828c016138c5565b90955093505060a08901356001600160401b03811115613a9c57600080fd5b60008060008060408587031215613b6057600080fd5b84356001600160401b03811115613b7657600080fd5b613b82878288016139b4565b90955093505060208501356001600160401b03811115613ba157600080fd5b613bad878288016139b4565b95989497509550505050565b602080825282518282018190526000918401906040840190835b81811015613bf1578351835260209384019390920191600101613bd3565b509095945050505050565b634e487b7160e01b600052604160045260246000fd5b600082601f830112613c2357600080fd5b81356001600160401b03811115613c3c57613c3c613bfc565b8060051b604051601f19603f83011681018181106001600160401b0382111715613c6857613c68613bfc565b604052918252602081850181019290810186841115613c8657600080fd5b6020860192505b83831015613cac57613c9e8361377e565b815260209283019201613c8d565b5095945050505050565b60008060008060008060008060008060008060e08d8f031215613cd857600080fd5b6001600160401b038d351115613ced57600080fd5b613cfa8e8e358f016139b4565b909c509a506001600160401b0360208e01351115613d1757600080fd5b613d278e60208f01358f016139b4565b909a5098506001600160401b0360408e01351115613d4457600080fd5b613d548e60408f01358f016139b4565b90985096506001600160401b0360608e01351115613d7157600080fd5b613d818e60608f01358f01613c12565b95506001600160401b0360808e01351115613d9b57600080fd5b613dab8e60808f01358f01613c12565b94506001600160401b0360a08e01351115613dc557600080fd5b613dd58e60a08f01358f016139b4565b90945092506001600160401b0360c08e01351115613df257600080fd5b613e028e60c08f01358f016139b4565b81935080925050509295989b509295989b509295989b565b60008060408385031215613e2d57600080fd5b613e368361387d565b91506137e76020840161377e565b60008060408385031215613e5757600080fd5b6137b68361387d565b8035801515811461379557600080fd5b60008060408385031215613e8357600080fd5b613e8c8361377e565b91506137e760208401613e60565b600080600060608486031215613eaf57600080fd5b83359250613ebf6020850161377e565b9150613ecd6040850161377e565b90509250925092565b60008060208385031215613ee957600080fd5b82356001600160401b03811115613eff57600080fd5b613f0b858286016139b4565b90969095509350505050565b6000602082016020835280845180835260408501915060408160051b86010192506020860160005b82811015613f7057603f19878603018452613f5b85835161383e565b94506020938401939190910190600101613f3f565b50929695505050505050565b60008060008060808587031215613f9257600080fd5b84359350613fa26020860161377e565b9250613fb060408601613e60565b9150613fbe60608601613e60565b905092959194509250565b600080600080600080600080600060e08a8c031215613fe757600080fd5b8935985060208a01356001600160401b0381111561400457600080fd5b6140108c828d016138c5565b9099509750614023905060408b0161387d565b955061403160608b0161377e565b945061403f60808b0161377e565b935061404d60a08b01613e60565b925060c08a01356001600160401b0381111561406857600080fd5b6140748c828d016138c5565b915080935050809150509295985092959850929598565b6000806040838503121561409e57600080fd5b823591506137e760208401613e60565b610120815260006140c361012083018c61383e565b63ffffffff8b811660208501528a1660408401526001600160a01b0389811660608501528816608084015282810360a0840152614100818861383e565b61ffff9690961660c0840152505091151560e08301521515610100909101529695505050505050565b60008060006040848603121561413e57600080fd5b8335925060208401356001600160401b0381111561415b57600080fd5b614167868287016138c5565b9497909650939450505050565b6000806040838503121561418757600080fd5b613e368361377e565b60008060008060008060a087890312156141a957600080fd5b6141b28761377e565b95506141c06020880161377e565b9450604087013593506060870135925060808701356001600160401b038111156141e957600080fd5b6141f589828a016138c5565b979a9699509497509295939492505050565b6000806040838503121561421a57600080fd5b82359150602083013561ffff8116811461423357600080fd5b809150509250929050565b600181811c9082168061425257607f821691505b6020821081036127ac57634e487b7160e01b600052602260045260246000fd5b634e487b7160e01b600052601160045260246000fd5b61ffff8181168382160190811115610a9157610a91614272565b600063ffffffff821663ffffffff81036142be576142be614272565b60010192915050565b600081516142d981856020860161381a565b9290920192915050565b600082516142f581846020870161381a565b9190910192915050565b6000806040838503121561431257600080fd5b505080516020909101519092909150565b634e487b7160e01b600052603260045260246000fd5b60006020828403121561434b57600080fd5b610b638261377e565b63ffffffff8281168282160390811115610a9157610a91614272565b81810381811115610a9157610a91614272565b8082028115828204841417610a9157610a91614272565b6000808335601e198436030181126143b157600080fd5b8301803591506001600160401b038211156143cb57600080fd5b60200191503681900382131561390657600080fd5b6000602082840312156143f257600080fd5b610b6382613e60565b600061ffff821661ffff81036142be576142be614272565b601f821115610cb857806000526020600020601f840160051c8101602085101561443a5750805b601f840160051c820191505b8181101561445a5760008155600101614446565b5050505050565b6001600160401b0383111561447857614478613bfc565b61448c83614486835461423e565b83614413565b6000601f8411600181146144c057600085156144a85750838201355b600019600387901b1c1916600186901b17835561445a565b600083815260209020601f19861690835b828110156144f157868501358255602094850194600190920191016144d1565b508682101561450e5760001960f88860031b161c19848701351681555b505060018560011b0183555050505050565b81835281816020850137506000828201602090810191909152601f909101601f19169091010190565b838152604060208201526000610bca604083018486614520565b63ffffffff8181168382160190811115610a9157610a91614272565b805160208083015191908110156127ac5760001960209190910360031b1b16919050565b6000602082840312156145b557600080fd5b5051919050565b6a113237b6b0b4b7111d101160a91b815283516000906145e381600b85016020890161381a565b691116101134b2111d101160b11b600b91840191820152845161460d81601584016020890161381a565b600b818301019150507011161011383932ba3a3c9034b2111d101160791b600a820152835161464381601b84016020880161381a565b61088b60f21b601b9290910191820152601d0195945050505050565b6a1139ba30ba3ab9911d101160a91b8152885160009061468681600b850160208e0161381a565b751116101131bab93932b73a1039bab838363c911d101160511b600b9184019182015289516146bc816021840160208e0161381a565b01600b8101906146e390602101711116101139bab838363c9031b0b8111d101160711b9052565b6146f0602882018a6142c7565b711116101130b236b4b7101434b214911d101160711b8152905061471760128201896142c7565b7f222c202261646d696e202870726574747920696429223a2022000000000000008152905061474960198201886142c7565b7f222c2022656c69676962696c697479206d6f64756c65223a20220000000000008152905061477b601a8201876142c7565b74111610113a37b3b3b6329036b7b23ab632911d101160591b815290506147a560158201866142c7565b6e1116101136baba30b13632911d101160891b815290506147c9600f8201856142c7565b601160f91b81526001019b9a5050505050505050505050565b693d913730b6b2911d101160b11b81526212185d60ea1b600a82015272111610113232b9b1b934b83a34b7b7111d101160691b600d8201528454600090819061482a8161423e565b600182168015614841576001811461485c57614895565b60ff1983166020870152602082151583028701019350614895565b89600052602060002060005b8381101561488a5781546020828a010152600182019150602081019050614868565b505060208287010193505b50506c1116101134b6b0b3b2911d101160991b8252506148b8600d8201876142c7565b61088b60f21b815290506d011383937b832b93a34b2b9911d160951b6002820152607b60f81b60108201526148f96148f360118301876142c7565b856142c7565b607d60f81b8082526001820152600201979650505050505050565b7f646174613a6170706c69636174696f6e2f6a736f6e3b6261736536342c00000081526000825161494c81601d85016020870161381a565b91909101601d0192915050565b89815260e06020820152600061497360e083018a8c614520565b63ffffffff891660408401526001600160a01b0388811660608501528716608084015285151560a084015282810360c08401526149b1818587614520565b9c9b50505050505050505050505056fea2646970667358221220a5384cda675eb30982941df1b08e680bcbb99c0b1dc51e09d3df8fcce8b4ed4864736f6c634300081a003300000000000000000000000000000000000000000000000000000000000000400000000000000000000000000000000000000000000000000000000000000080000000000000000000000000000000000000000000000000000000000000000476302e3100000000000000000000000000000000000000000000000000000000000000000000000000000000000000000000000000000000000000000000000c44656661756c7420494650530000000000000000000000000000000000000000",
        "nonce": "0x44",
        "chainId": "0xfa2"
      },
      "additionalContracts": [],
      "isFixedGasLimit": false
    },
    {
      "hash": "0x8fe7a992ae9821cdf323bb5e245d53cafffef6de75378e12dce94993428143ed",
      "transactionType": "CALL",
      "contractName": "Hats",
      "contractAddress": "0xa8a4d5794b140fd9e16dfbef675f2d8521729e4c",
      "function": "mintTopHat(address,string,string)",
      "arguments": [
        "0x08c93Bdb1EFb73386E7D57Af26eea36C5749E790",
        "\"Top Hat\"",
        "\"TopHat IPFS\""
      ],
      "transaction": {
        "from": "0x08c93bdb1efb73386e7d57af26eea36c5749e790",
        "to": "0xa8a4d5794b140fd9e16dfbef675f2d8521729e4c",
        "gas": "0x379e9",
        "value": "0x0",
        "input": "0x1a64dfad00000000000000000000000008c93bdb1efb73386e7d57af26eea36c5749e790000000000000000000000000000000000000000000000000000000000000006000000000000000000000000000000000000000000000000000000000000000a00000000000000000000000000000000000000000000000000000000000000007546f702048617400000000000000000000000000000000000000000000000000000000000000000000000000000000000000000000000000000000000000000b546f704861742049504653000000000000000000000000000000000000000000",
        "nonce": "0x45",
        "chainId": "0xfa2"
      },
      "additionalContracts": [],
      "isFixedGasLimit": false
    },
    {
      "hash": "0x3d13bf20ea93a9e428ef698e7125d8aeb4df181b97793438517d099edaa59a15",
      "transactionType": "CALL",
      "contractName": "Hats",
      "contractAddress": "0xa8a4d5794b140fd9e16dfbef675f2d8521729e4c",
      "function": "createHat(uint256,string,uint32,address,address,bool,string)",
      "arguments": [
        "26959946667150639794667015087019630673637144422540572481103610249216",
        "\"Hatter\"",
        "5",
        "0x08c93Bdb1EFb73386E7D57Af26eea36C5749E790",
        "0x08c93Bdb1EFb73386E7D57Af26eea36C5749E790",
        "true",
        "\"Hatter IPFS\""
      ],
      "transaction": {
        "from": "0x08c93bdb1efb73386e7d57af26eea36c5749e790",
        "to": "0xa8a4d5794b140fd9e16dfbef675f2d8521729e4c",
        "gas": "0x2e15e",
        "value": "0x0",
        "input": "0xb052925e000000010000000000000000000000000000000000000000000000000000000000000000000000000000000000000000000000000000000000000000000000e0000000000000000000000000000000000000000000000000000000000000000500000000000000000000000008c93bdb1efb73386e7d57af26eea36c5749e79000000000000000000000000008c93bdb1efb73386e7d57af26eea36c5749e7900000000000000000000000000000000000000000000000000000000000000001000000000000000000000000000000000000000000000000000000000000012000000000000000000000000000000000000000000000000000000000000000064861747465720000000000000000000000000000000000000000000000000000000000000000000000000000000000000000000000000000000000000000000b4861747465722049504653000000000000000000000000000000000000000000",
        "nonce": "0x46",
        "chainId": "0xfa2"
      },
      "additionalContracts": [],
      "isFixedGasLimit": false
    },
    {
      "hash": "0x8b5bb0bd97699a396d0ffe818f5e536624c3c9b5e398656867afc7d7d9b48502",
      "transactionType": "CREATE",
      "contractName": null,
      "contractAddress": "0x64ebf6e6597e707978df33f08e5847976c00db03",
      "function": null,
      "arguments": null,
      "transaction": {
        "from": "0x08c93bdb1efb73386e7d57af26eea36c5749e790",
        "gas": "0xf59e5",
        "value": "0x0",
        "input": "0x608060405234801561001057600080fd5b50604051610f0a380380610f0a83398101604081905261002f9161014e565b8181600161003d83826102b4565b50600080546001600160a01b0319166001600160a01b03831617905561006161006a565b50505050610372565b7ff0c57e16840df040f15088dc2f81fe391c3923bec73e23a9662efc9c229c6a00805468010000000000000000900460ff16156100ba5760405163f92ee8a960e01b815260040160405180910390fd5b80546001600160401b03908116146101195780546001600160401b0319166001600160401b0390811782556040519081527fc7f505b2f371ae2175ee4913f4499e1f2633a7b5936321eed1cdaeb6115181d29060200160405180910390a15b50565b634e487b7160e01b600052604160045260246000fd5b80516001600160a01b038116811461014957600080fd5b919050565b6000806040838503121561016157600080fd5b82516001600160401b0381111561017757600080fd5b8301601f8101851361018857600080fd5b80516001600160401b038111156101a1576101a161011c565b604051601f8201601f19908116603f011681016001600160401b03811182821017156101cf576101cf61011c565b6040528181528282016020018710156101e757600080fd5b60005b82811015610206576020818501810151838301820152016101ea565b5060006020838301015280945050505061022260208401610132565b90509250929050565b600181811c9082168061023f57607f821691505b60208210810361025f57634e487b7160e01b600052602260045260246000fd5b50919050565b601f8211156102af57806000526020600020601f840160051c8101602085101561028c5750805b601f840160051c820191505b818110156102ac5760008155600101610298565b50505b505050565b81516001600160401b038111156102cd576102cd61011c565b6102e1816102db845461022b565b84610265565b6020601f82116001811461031557600083156102fd5750848201515b600019600385901b1c1916600184901b1784556102ac565b600084815260208120601f198516915b828110156103455787850151825560209485019460019092019101610325565b50848210156103635786840151600019600387901b60f8161c191681555b50505050600190811b01905550565b610b89806103816000396000f3fe608060405234801561001057600080fd5b50600436106100cf5760003560e01c8063686d9fa21161008c578063cc9d707411610066578063cc9d7074146101ca578063d74251a0146101dd578063dd1bb1fc146101f0578063efbd181f146101f857600080fd5b8063686d9fa21461019157806394dc956a146101a4578063a4f9edbf146101b757600080fd5b806307ace2b5146100d45780631d70af85146100f757806330178f2a1461012757806331d70b661461013c5780633a4741bd1461015f57806354fd4d501461017c575b600080fd5b3660011981013560f01c9003602801356040519081526020015b60405180910390f35b61011a610105366004610846565b60026020526000908152604090205460ff1681565b6040516100ee9190610875565b61013a610135366004610846565b610210565b005b61014f61014a366004610846565b61021d565b60405190151581526020016100ee565b6040513660011981013560f01c90033560601c81526020016100ee565b610184610297565b6040516100ee91906108c1565b61014f61019f366004610909565b61030d565b61014f6101b2366004610846565b610330565b61013a6101c5366004610935565b6103ab565b61014f6101d8366004610909565b6104b3565b61014f6101eb366004610846565b6104be565b61018461050c565b61014f610206366004610846565b61059a565b905090565b61021a81336105e7565b50565b60008054604051635ab7bab160e11b8152306004820152602481018490526001600160a01b039091169063b56f756290604401602060405180830381865afa15801561026d573d6000803e3d6000fd5b505050506040513d601f19601f8201168201806040525081019061029191906109a9565b92915050565b60603660011981013560f01c900335811c6001600160a01b031663dd1bb1fc6040518163ffffffff1660e01b8152600401600060405180830381865afa1580156102e5573d6000803e3d6000fd5b505050506040513d6000823e601f3d908101601f1916820160405261020b91908101906109e1565b6000610318826104be565b8015610329575061032982846106a0565b9392505050565b6000805460405163fb28491760e01b81526004810184905282916001600160a01b03169063fb28491790602401602060405180830381865afa15801561037a573d6000803e3d6000fd5b505050506040513d601f19601f8201168201806040525081019061039e9190610a96565b63ffffffff161192915050565b7ff0c57e16840df040f15088dc2f81fe391c3923bec73e23a9662efc9c229c6a008054600160401b810460ff16159067ffffffffffffffff166000811580156103f15750825b905060008267ffffffffffffffff16600114801561040e5750303b155b90508115801561041c575080155b1561043a5760405163f92ee8a960e01b815260040160405180910390fd5b845467ffffffffffffffff19166001178555831561046457845460ff60401b1916600160401b1785555b83156104aa57845460ff60401b19168555604051600181527fc7f505b2f371ae2175ee4913f4499e1f2633a7b5936321eed1cdaeb6115181d29060200160405180910390a15b50505050505050565b60006103188261059a565b60006104c982610330565b80156104d957506104d98261021d565b8015610291575060008281526002602081905260409091205460ff16818111156105055761050561085f565b1492915050565b6001805461051990610abc565b80601f016020809104026020016040519081016040528092919081815260200182805461054590610abc565b80156105925780601f1061056757610100808354040283529160200191610592565b820191906000526020600020905b81548152906001019060200180831161057557829003601f168201915b505050505081565b60006105a582610330565b80156105b557506105b58261021d565b80156102915750600082815260026020819052604082205460ff16908111156105e0576105e061085f565b1192915050565b6105f182826106a0565b610624576040516313d4d4dd60e01b81526001600160a01b03821660048201526024810183905260440160405180910390fd5b60005460405163320fbbb760e11b8152600481018490526001600160a01b0383811660248301529091169063641f776e906044016020604051808303816000875af1158015610677573d6000803e3d6000fd5b505050506040513d601f19601f8201168201806040525081019061069b91906109a9565b505050565b60008054604051638c07607760e01b81526004810185905282916001600160a01b031690638c07607790602401602060405180830381865afa1580156106ea573d6000803e3d6000fd5b505050506040513d601f19601f8201168201806040525081019061070e9190610af6565b6040516001600160a01b038581166024830152604482018790529192506000918291829185169060640160408051601f198184030181529181526020820180516001600160e01b0316635eb41c3960e11b1790525161076d9190610b13565b600060405180830381855afa9150503d80600081146107a8576040519150601f19603f3d011682016040523d82523d6000602084013e6107ad565b606091505b50915091508180156107c0575080516040145b1561083757600080828060200190518101906107dc9190610b2f565b915091506002821080156107f05750600281105b1561082b5780600114610804576000610807565b60015b94508480156108165750816001145b610821576000610824565b60015b9650610830565b600096505b505061083c565b600094505b5050505092915050565b60006020828403121561085857600080fd5b5035919050565b634e487b7160e01b600052602160045260246000fd5b602081016003831061089757634e487b7160e01b600052602160045260246000fd5b91905290565b60005b838110156108b85781810151838201526020016108a0565b50506000910152565b60208152600082518060208401526108e081604085016020870161089d565b601f01601f19169190910160400192915050565b6001600160a01b038116811461021a57600080fd5b6000806040838503121561091c57600080fd5b8235610927816108f4565b946020939093013593505050565b6000806020838503121561094857600080fd5b823567ffffffffffffffff81111561095f57600080fd5b8301601f8101851361097057600080fd5b803567ffffffffffffffff81111561098757600080fd5b85602082840101111561099957600080fd5b6020919091019590945092505050565b6000602082840312156109bb57600080fd5b8151801515811461032957600080fd5b634e487b7160e01b600052604160045260246000fd5b6000602082840312156109f357600080fd5b815167ffffffffffffffff811115610a0a57600080fd5b8201601f81018413610a1b57600080fd5b805167ffffffffffffffff811115610a3557610a356109cb565b604051601f8201601f19908116603f0116810167ffffffffffffffff81118282101715610a6457610a646109cb565b604052818152828201602001861015610a7c57600080fd5b610a8d82602083016020860161089d565b95945050505050565b600060208284031215610aa857600080fd5b815163ffffffff8116811461032957600080fd5b600181811c90821680610ad057607f821691505b602082108103610af057634e487b7160e01b600052602260045260246000fd5b50919050565b600060208284031215610b0857600080fd5b8151610329816108f4565b60008251610b2581846020870161089d565b9190910192915050565b60008060408385031215610b4257600080fd5b50508051602090910151909290915056fea264697066735822122039a36babb4a6191fd2ba3e04d07aefe0e26569cb112981ca10a3ec3025cdc86e64736f6c634300081a00330000000000000000000000000000000000000000000000000000000000000040000000000000000000000000a8a4d5794b140fd9e16dfbef675f2d8521729e4c000000000000000000000000000000000000000000000000000000000000000476302e3100000000000000000000000000000000000000000000000000000000",
        "nonce": "0x47",
        "chainId": "0xfa2"
      },
      "additionalContracts": [],
      "isFixedGasLimit": false
    },
    {
      "hash": "0x95d21d51b4e715bd30526457480208b7afb6098d6d28615cf927cd8ce1f35156",
      "transactionType": "CALL",
      "contractName": "Hats",
      "contractAddress": "0xa8a4d5794b140fd9e16dfbef675f2d8521729e4c",
      "function": "mintHat(uint256,address)",
      "arguments": [
        "26960358043289970096177553829315270011263390106506980876069447401472",
        "0x64EbF6E6597E707978Df33F08E5847976c00db03"
      ],
      "transaction": {
        "from": "0x08c93bdb1efb73386e7d57af26eea36c5749e790",
        "to": "0xa8a4d5794b140fd9e16dfbef675f2d8521729e4c",
        "gas": "0x188ea",
        "value": "0x0",
        "input": "0x641f776e000000010001000000000000000000000000000000000000000000000000000000000000000000000000000064ebf6e6597e707978df33f08e5847976c00db03",
        "nonce": "0x48",
        "chainId": "0xfa2"
      },
      "additionalContracts": [],
      "isFixedGasLimit": false
    },
    {
      "hash": "0x86f4f4b46b283a02f2f95d8595635b42882c696a00295350df5c8d4d3a7751ac",
      "transactionType": "CREATE",
      "contractName": "ActiveModule",
      "contractAddress": "0x8e05f0d0262dfc5251f383b84e3cfdd3e2164211",
      "function": null,
      "arguments": null,
      "transaction": {
        "from": "0x08c93bdb1efb73386e7d57af26eea36c5749e790",
        "gas": "0x1c8b3",
        "value": "0x0",
        "input": "0x6080604052348015600f57600080fd5b5060a980601d6000396000f3fe6080604052348015600f57600080fd5b506004361060285760003560e01c8063c91116fc14602d575b600080fd5b60406038366004605b565b506001908190565b60408051921515835290151560208301520160405180910390f35b600060208284031215606c57600080fd5b503591905056fea264697066735822122054499aa4e398b6e091027bc6c965d46f14753149b60f1cd1c41f216de3c0e09864736f6c634300081a0033",
        "nonce": "0x49",
        "chainId": "0xfa2"
      },
      "additionalContracts": [],
      "isFixedGasLimit": false
    },
    {
      "hash": "0x29d7c4b2494f2cb39f48e8d4da77771a21cc59019755416902caf58ab0a0588d",
      "transactionType": "CREATE",
      "contractName": "ERC1155EligibiltiyModule",
      "contractAddress": "0x3e7c521b073e7516f73ba08459a2390c04afa816",
      "function": null,
      "arguments": [
        "0xF34bd9cf68b66f2D41365c122b2b26fA5eA99Dc7",
        "100"
      ],
      "transaction": {
        "from": "0x08c93bdb1efb73386e7d57af26eea36c5749e790",
        "gas": "0x39fd5",
        "value": "0x0",
        "input": "0x6080604052348015600f57600080fd5b50604051610219380380610219833981016040819052602c916054565b600080546001600160a01b0319166001600160a01b039390931692909217909155600155608c565b60008060408385031215606657600080fd5b82516001600160a01b0381168114607c57600080fd5b6020939093015192949293505050565b61017e8061009b6000396000f3fe608060405234801561001057600080fd5b506004361061002b5760003560e01c8063bd68387214610030575b600080fd5b61004361003e3660046100f7565b61005e565b60408051921515835290151560208301520160405180910390f35b60015460008054604051627eeac760e11b81526001600160a01b03868116600483015260248201849052929384939092169062fdd58e90604401602060405180830381865afa1580156100b5573d6000803e3d6000fd5b505050506040513d601f19601f820116820180604052508101906100d9919061012f565b11156100e857600191506100ed565b600091505b5060019250929050565b6000806040838503121561010a57600080fd5b82356001600160a01b038116811461012157600080fd5b946020939093013593505050565b60006020828403121561014157600080fd5b505191905056fea26469706673582212203447fd08086131ff1730ff1d6fe28a30158cefe32f1926b610695d229da2dc2764736f6c634300081a0033000000000000000000000000f34bd9cf68b66f2d41365c122b2b26fa5ea99dc70000000000000000000000000000000000000000000000000000000000000064",
        "nonce": "0x4a",
        "chainId": "0xfa2"
      },
      "additionalContracts": [],
      "isFixedGasLimit": false
    },
    {
      "hash": "0xe35d11e209405d28cfe74e886de1042c2fe8775fd52d4704c7e5a721f031ec84",
      "transactionType": "CREATE",
      "contractName": "ERC1155EligibiltiyModule",
      "contractAddress": "0x12514e042062e52ae274ea6010b98bfe84122c6d",
      "function": null,
      "arguments": [
        "0xF34bd9cf68b66f2D41365c122b2b26fA5eA99Dc7",
        "500"
      ],
      "transaction": {
        "from": "0x08c93bdb1efb73386e7d57af26eea36c5749e790",
        "gas": "0x39fe5",
        "value": "0x0",
        "input": "0x6080604052348015600f57600080fd5b50604051610219380380610219833981016040819052602c916054565b600080546001600160a01b0319166001600160a01b039390931692909217909155600155608c565b60008060408385031215606657600080fd5b82516001600160a01b0381168114607c57600080fd5b6020939093015192949293505050565b61017e8061009b6000396000f3fe608060405234801561001057600080fd5b506004361061002b5760003560e01c8063bd68387214610030575b600080fd5b61004361003e3660046100f7565b61005e565b60408051921515835290151560208301520160405180910390f35b60015460008054604051627eeac760e11b81526001600160a01b03868116600483015260248201849052929384939092169062fdd58e90604401602060405180830381865afa1580156100b5573d6000803e3d6000fd5b505050506040513d601f19601f820116820180604052508101906100d9919061012f565b11156100e857600191506100ed565b600091505b5060019250929050565b6000806040838503121561010a57600080fd5b82356001600160a01b038116811461012157600080fd5b946020939093013593505050565b60006020828403121561014157600080fd5b505191905056fea26469706673582212203447fd08086131ff1730ff1d6fe28a30158cefe32f1926b610695d229da2dc2764736f6c634300081a0033000000000000000000000000f34bd9cf68b66f2d41365c122b2b26fa5ea99dc700000000000000000000000000000000000000000000000000000000000001f4",
        "nonce": "0x4b",
        "chainId": "0xfa2"
      },
      "additionalContracts": [],
      "isFixedGasLimit": false
    },
    {
      "hash": "0x4d5265b6d68e0c1e879fdc140b874876023ed6804b8e6cbdd3e3760b59e7114b",
      "transactionType": "CREATE",
      "contractName": "ERC1155EligibiltiyModule",
      "contractAddress": "0xeb7ca04aabdc78391dc9d8fd66a61589145c162c",
      "function": null,
      "arguments": [
        "0xF34bd9cf68b66f2D41365c122b2b26fA5eA99Dc7",
        "1500"
      ],
      "transaction": {
        "from": "0x08c93bdb1efb73386e7d57af26eea36c5749e790",
        "gas": "0x39fe5",
        "value": "0x0",
        "input": "0x6080604052348015600f57600080fd5b50604051610219380380610219833981016040819052602c916054565b600080546001600160a01b0319166001600160a01b039390931692909217909155600155608c565b60008060408385031215606657600080fd5b82516001600160a01b0381168114607c57600080fd5b6020939093015192949293505050565b61017e8061009b6000396000f3fe608060405234801561001057600080fd5b506004361061002b5760003560e01c8063bd68387214610030575b600080fd5b61004361003e3660046100f7565b61005e565b60408051921515835290151560208301520160405180910390f35b60015460008054604051627eeac760e11b81526001600160a01b03868116600483015260248201849052929384939092169062fdd58e90604401602060405180830381865afa1580156100b5573d6000803e3d6000fd5b505050506040513d601f19601f820116820180604052508101906100d9919061012f565b11156100e857600191506100ed565b600091505b5060019250929050565b6000806040838503121561010a57600080fd5b82356001600160a01b038116811461012157600080fd5b946020939093013593505050565b60006020828403121561014157600080fd5b505191905056fea26469706673582212203447fd08086131ff1730ff1d6fe28a30158cefe32f1926b610695d229da2dc2764736f6c634300081a0033000000000000000000000000f34bd9cf68b66f2d41365c122b2b26fa5ea99dc700000000000000000000000000000000000000000000000000000000000005dc",
        "nonce": "0x4c",
        "chainId": "0xfa2"
      },
      "additionalContracts": [],
      "isFixedGasLimit": false
    },
    {
      "hash": "0xf4f7d73a2abbe580e02e9581a419803b58c863b22c98e5b4c801021d0783ef88",
      "transactionType": "CALL",
      "contractName": "Hats",
      "contractAddress": "0xa8a4d5794b140fd9e16dfbef675f2d8521729e4c",
      "function": "createHat(uint256,string,uint32,address,address,bool,string)",
      "arguments": [
        "26960358043289970096177553829315270011263390106506980876069447401472",
        "\"Hat of Engineering\"",
        "30",
        "0x3e7C521B073e7516f73Ba08459A2390C04aFa816",
        "0x8E05f0d0262dFc5251f383B84E3cFDD3e2164211",
        "true",
        "\"ipfs://bafkreicff2j67tg5g3klktkk4wavcctorj65y5upkolznwgbhmrakv4dba\""
      ],
      "transaction": {
        "from": "0x08c93bdb1efb73386e7d57af26eea36c5749e790",
        "to": "0xa8a4d5794b140fd9e16dfbef675f2d8521729e4c",
        "gas": "0x48ec9",
        "value": "0x0",
        "input": "0xb052925e000000010001000000000000000000000000000000000000000000000000000000000000000000000000000000000000000000000000000000000000000000e0000000000000000000000000000000000000000000000000000000000000001e0000000000000000000000003e7c521b073e7516f73ba08459a2390c04afa8160000000000000000000000008e05f0d0262dfc5251f383b84e3cfdd3e2164211000000000000000000000000000000000000000000000000000000000000000100000000000000000000000000000000000000000000000000000000000001200000000000000000000000000000000000000000000000000000000000000012486174206f6620456e67696e656572696e6700000000000000000000000000000000000000000000000000000000000000000000000000000000000000000042697066733a2f2f6261666b726569636666326a363774673567336b6c6b746b6b347761766363746f726a3635793575706b6f6c7a6e776762686d72616b7634646261000000000000000000000000000000000000000000000000000000000000",
        "nonce": "0x4d",
        "chainId": "0xfa2"
      },
      "additionalContracts": [],
      "isFixedGasLimit": false
    },
    {
      "hash": "0xbd411dbd3cc7fb40f5044bbc7d7d1883a83a2c229078856e51b86156082e1dd9",
      "transactionType": "CALL",
      "contractName": "Hats",
      "contractAddress": "0xa8a4d5794b140fd9e16dfbef675f2d8521729e4c",
      "function": "createHat(uint256,string,uint32,address,address,bool,string)",
      "arguments": [
        "26960358043289970096177553829315270011263390106506980876069447401472",
        "\"Hat of Steardship\"",
        "30",
        "0x12514E042062E52aE274ea6010b98BFE84122c6D",
        "0x8E05f0d0262dFc5251f383B84E3cFDD3e2164211",
        "true",
        "\"ipfs://bafkreibfian6fybuifdvchrjspqpedvrkakhwdnyhpwrroustpa7mjtto4\""
      ],
      "transaction": {
        "from": "0x08c93bdb1efb73386e7d57af26eea36c5749e790",
        "to": "0xa8a4d5794b140fd9e16dfbef675f2d8521729e4c",
        "gas": "0x48eb9",
        "value": "0x0",
        "input": "0xb052925e000000010001000000000000000000000000000000000000000000000000000000000000000000000000000000000000000000000000000000000000000000e0000000000000000000000000000000000000000000000000000000000000001e00000000000000000000000012514e042062e52ae274ea6010b98bfe84122c6d0000000000000000000000008e05f0d0262dfc5251f383b84e3cfdd3e2164211000000000000000000000000000000000000000000000000000000000000000100000000000000000000000000000000000000000000000000000000000001200000000000000000000000000000000000000000000000000000000000000011486174206f6620537465617264736869700000000000000000000000000000000000000000000000000000000000000000000000000000000000000000000042697066733a2f2f6261666b726569626669616e3666796275696664766368726a73707170656476726b616b6877646e7968707772726f7573747061376d6a74746f34000000000000000000000000000000000000000000000000000000000000",
        "nonce": "0x4e",
        "chainId": "0xfa2"
      },
      "additionalContracts": [],
      "isFixedGasLimit": false
    },
    {
      "hash": "0x8259a8e6e26414b562795509630cde6633f83a719196105ab7fd4ace8ebc6b09",
      "transactionType": "CALL",
      "contractName": "Hats",
      "contractAddress": "0xa8a4d5794b140fd9e16dfbef675f2d8521729e4c",
      "function": "createHat(uint256,string,uint32,address,address,bool,string)",
      "arguments": [
        "26960358043289970096177553829315270011263390106506980876069447401472",
        "\"Hat of Warden\"",
        "30",
        "0xeb7cA04AABDc78391DC9d8fD66a61589145c162C",
        "0x8E05f0d0262dFc5251f383B84E3cFDD3e2164211",
        "true",
        "\"ipfs://bafkreigvzey77niarqslm6wjd3e77ihwc5rcdrrahp3o6og2dszzzw2fpi\""
      ],
      "transaction": {
        "from": "0x08c93bdb1efb73386e7d57af26eea36c5749e790",
        "to": "0xa8a4d5794b140fd9e16dfbef675f2d8521729e4c",
        "gas": "0x48e77",
        "value": "0x0",
        "input": "0xb052925e000000010001000000000000000000000000000000000000000000000000000000000000000000000000000000000000000000000000000000000000000000e0000000000000000000000000000000000000000000000000000000000000001e000000000000000000000000eb7ca04aabdc78391dc9d8fd66a61589145c162c0000000000000000000000008e05f0d0262dfc5251f383b84e3cfdd3e216421100000000000000000000000000000000000000000000000000000000000000010000000000000000000000000000000000000000000000000000000000000120000000000000000000000000000000000000000000000000000000000000000d486174206f662057617264656e000000000000000000000000000000000000000000000000000000000000000000000000000000000000000000000000000042697066733a2f2f6261666b72656967767a657937376e69617271736c6d36776a643365373769687763357263647272616870336f366f673264737a7a7a7732667069000000000000000000000000000000000000000000000000000000000000",
        "nonce": "0x4f",
        "chainId": "0xfa2"
      },
      "additionalContracts": [],
      "isFixedGasLimit": false
    }
  ],
  "receipts": [
    {
      "status": "0x1",
      "cumulativeGasUsed": "0x18818",
      "logs": [
        {
          "address": "0xf34bd9cf68b66f2d41365c122b2b26fa5ea99dc7",
          "topics": [
            "0x2f8788117e7eff1d82e926ec794901d17c78024a50270940304540a733656f0d",
            "0x9f2df0fed2c77648de5860a4cc508cd0818c85b8b8a1ab4ceeef8d981c8956a6",
            "0x00000000000000000000000008c93bdb1efb73386e7d57af26eea36c5749e790",
            "0x00000000000000000000000008c93bdb1efb73386e7d57af26eea36c5749e790"
          ],
          "data": "0x",
          "blockHash": "0x0000652d000010ec54af394dc26f76fa5b72f799d4a985bffa3ef23ef3a0a5a9",
          "blockNumber": "0x1906b10",
          "transactionHash": "0x05ce09235d166c11422b10634fa4f5dfa76aab0e2121f8b6d32ca0648ffdeff1",
          "transactionIndex": "0x0",
          "logIndex": "0x0",
          "removed": false
        }
      ],
      "logsBloom": "0x00000004000100000000000000000000000000000000000000000000000000000000000000000000000000000000004000000000000000000000000000000000000000000000000000000000000000000000000000000000000000000000000000100000000000000000000000020000000400000000000000000000001000000000000000000000000000000000000000000000000000000000000000000000000000000000000000000000000000000000000000000000001000000000000000000000000002000001000000000000001000000000000100000000000000000000000000000000000000000000000000000000000000000000000000000000",
      "type": "0x0",
      "transactionHash": "0x05ce09235d166c11422b10634fa4f5dfa76aab0e2121f8b6d32ca0648ffdeff1",
      "transactionIndex": "0x0",
      "blockHash": "0x0000652d000010ec54af394dc26f76fa5b72f799d4a985bffa3ef23ef3a0a5a9",
      "blockNumber": "0x1906b10",
      "gasUsed": "0x18818",
      "effectiveGasPrice": "0x3d184628",
      "from": "0x08c93bdb1efb73386e7d57af26eea36c5749e790",
      "to": "0xf34bd9cf68b66f2d41365c122b2b26fa5ea99dc7",
      "contractAddress": null
    },
    {
      "status": "0x1",
      "cumulativeGasUsed": "0x31030",
      "logs": [
        {
          "address": "0xf34bd9cf68b66f2d41365c122b2b26fa5ea99dc7",
          "topics": [
            "0x2f8788117e7eff1d82e926ec794901d17c78024a50270940304540a733656f0d",
            "0x832b0668f4756f82d274d4d6d2a66f96a8b25b4353ad5dfdae0e691d7769619b",
            "0x00000000000000000000000008c93bdb1efb73386e7d57af26eea36c5749e790",
            "0x00000000000000000000000008c93bdb1efb73386e7d57af26eea36c5749e790"
          ],
          "data": "0x",
          "blockHash": "0x0000652d000010ec54af394dc26f76fa5b72f799d4a985bffa3ef23ef3a0a5a9",
          "blockNumber": "0x1906b10",
          "transactionHash": "0x0627147f730f1278fcf3d5d8d0a9b103eb4b7838390273cd650d255e9ff02d80",
          "transactionIndex": "0x1",
          "logIndex": "0x1",
          "removed": false
        }
      ],
      "logsBloom": "0x00001004000100000000000000000000000000000000000000000000000000000000000000000000000000000000000000000000000000000000000000000000000000800000000000000000000000000000000000000000000000000000000000100000000000000000000000020000000400000000000000000000000000000000100000000000000000000000000000000000000000000000000000000000000000000000000000000000000000000000000000000000001000000000000000000000000002000001000000000000000000000000000100000000000000000000000000000000000000000000000000000000000000000000000000000000",
      "type": "0x0",
      "transactionHash": "0x0627147f730f1278fcf3d5d8d0a9b103eb4b7838390273cd650d255e9ff02d80",
      "transactionIndex": "0x1",
      "blockHash": "0x0000652d000010ec54af394dc26f76fa5b72f799d4a985bffa3ef23ef3a0a5a9",
      "blockNumber": "0x1906b10",
      "gasUsed": "0x18818",
      "effectiveGasPrice": "0x3d184628",
      "from": "0x08c93bdb1efb73386e7d57af26eea36c5749e790",
      "to": "0xf34bd9cf68b66f2d41365c122b2b26fa5ea99dc7",
      "contractAddress": null
    },
    {
      "status": "0x1",
      "cumulativeGasUsed": "0x390d1",
      "logs": [
        {
          "address": "0xf34bd9cf68b66f2d41365c122b2b26fa5ea99dc7",
          "topics": [
            "0x2f8788117e7eff1d82e926ec794901d17c78024a50270940304540a733656f0d",
            "0xfc1552b6aa2747ab03534329d86f6d3131cc2c88af7e48b6486c346619047c1a",
            "0x0000000000000000000000002911b8cb873651cb99f9975e6791edbded598017",
            "0x00000000000000000000000008c93bdb1efb73386e7d57af26eea36c5749e790"
          ],
          "data": "0x",
          "blockHash": "0x0000652d000010ec54af394dc26f76fa5b72f799d4a985bffa3ef23ef3a0a5a9",
          "blockNumber": "0x1906b10",
          "transactionHash": "0xc2eca613ae9b4e26d61574999da4fa9736547f001b6381acaed3ed39a76a5ad7",
          "transactionIndex": "0x2",
          "logIndex": "0x2",
          "removed": false
        }
      ],
      "logsBloom": "0x00000004000100000000000000000000000000008000000000000000000000000000000000000000000000000000000400000000000000000000000000000000000000000000000000000000000000000000000000000000000000000800000000100008000000000000000000020000000400000000000000000000000000000000000000000000000000000000000000000000000000000000000000000000000000000000000000000000000000000000000000001000001000000000000000000000000002000001000000000000000000000000000100000000000000000000000000200000000000000000000000000000000000000000000000000000",
      "type": "0x0",
      "transactionHash": "0xc2eca613ae9b4e26d61574999da4fa9736547f001b6381acaed3ed39a76a5ad7",
      "transactionIndex": "0x2",
      "blockHash": "0x0000652d000010ec54af394dc26f76fa5b72f799d4a985bffa3ef23ef3a0a5a9",
      "blockNumber": "0x1906b10",
      "gasUsed": "0x80a1",
      "effectiveGasPrice": "0x3d184628",
      "from": "0x08c93bdb1efb73386e7d57af26eea36c5749e790",
      "to": "0xf34bd9cf68b66f2d41365c122b2b26fa5ea99dc7",
      "contractAddress": null
    },
    {
      "status": "0x1",
      "cumulativeGasUsed": "0x4d085",
      "logs": [
        {
          "address": "0xf34bd9cf68b66f2d41365c122b2b26fa5ea99dc7",
          "topics": [
            "0x2f8788117e7eff1d82e926ec794901d17c78024a50270940304540a733656f0d",
            "0x9f2df0fed2c77648de5860a4cc508cd0818c85b8b8a1ab4ceeef8d981c8956a6",
            "0x0000000000000000000000002911b8cb873651cb99f9975e6791edbded598017",
            "0x00000000000000000000000008c93bdb1efb73386e7d57af26eea36c5749e790"
          ],
          "data": "0x",
          "blockHash": "0x0000652d000010ec54af394dc26f76fa5b72f799d4a985bffa3ef23ef3a0a5a9",
          "blockNumber": "0x1906b10",
          "transactionHash": "0xcf4a94d2c85aea53beb0e0c0868be3e52eb439ecdd42b8e837254b0f02480fc8",
          "transactionIndex": "0x3",
          "logIndex": "0x3",
          "removed": false
        }
      ],
      "logsBloom": "0x00000004000100000000000000000000000000008000000000000000000000000000000000000000000000000000004000000000000000000000000000000000000000000000000000000000000000000000000000000000000000000000000000100008000000000000000000020000000400000000000000000000001000000000000000000000000000000000000000000000000000000000000000000000000000000000000000000000000000000000000000000000001000000000000000000000000002000001000000000000001000000000000100000000000000000000000000200000000000000000000000000000000000000000000000000000",
      "type": "0x0",
      "transactionHash": "0xcf4a94d2c85aea53beb0e0c0868be3e52eb439ecdd42b8e837254b0f02480fc8",
      "transactionIndex": "0x3",
      "blockHash": "0x0000652d000010ec54af394dc26f76fa5b72f799d4a985bffa3ef23ef3a0a5a9",
      "blockNumber": "0x1906b10",
      "gasUsed": "0x13fb4",
      "effectiveGasPrice": "0x3d184628",
      "from": "0x08c93bdb1efb73386e7d57af26eea36c5749e790",
      "to": "0xf34bd9cf68b66f2d41365c122b2b26fa5ea99dc7",
      "contractAddress": null
    },
    {
      "status": "0x1",
      "cumulativeGasUsed": "0x61039",
      "logs": [
        {
          "address": "0xf34bd9cf68b66f2d41365c122b2b26fa5ea99dc7",
          "topics": [
            "0x2f8788117e7eff1d82e926ec794901d17c78024a50270940304540a733656f0d",
            "0x832b0668f4756f82d274d4d6d2a66f96a8b25b4353ad5dfdae0e691d7769619b",
            "0x0000000000000000000000002911b8cb873651cb99f9975e6791edbded598017",
            "0x00000000000000000000000008c93bdb1efb73386e7d57af26eea36c5749e790"
          ],
          "data": "0x",
          "blockHash": "0x0000652d000010ec54af394dc26f76fa5b72f799d4a985bffa3ef23ef3a0a5a9",
          "blockNumber": "0x1906b10",
          "transactionHash": "0x6ad6427f2671446b59b85aaf87bf5c46967dcae4b35ab6e591e3cb17a941178f",
          "transactionIndex": "0x4",
          "logIndex": "0x4",
          "removed": false
        }
      ],
      "logsBloom": "0x00001004000100000000000000000000000000008000000000000000000000000000000000000000000000000000000000000000000000000000000000000000000000800000000000000000000000000000000000000000000000000000000000100008000000000000000000020000000400000000000000000000000000000000100000000000000000000000000000000000000000000000000000000000000000000000000000000000000000000000000000000000001000000000000000000000000002000001000000000000000000000000000100000000000000000000000000200000000000000000000000000000000000000000000000000000",
      "type": "0x0",
      "transactionHash": "0x6ad6427f2671446b59b85aaf87bf5c46967dcae4b35ab6e591e3cb17a941178f",
      "transactionIndex": "0x4",
      "blockHash": "0x0000652d000010ec54af394dc26f76fa5b72f799d4a985bffa3ef23ef3a0a5a9",
      "blockNumber": "0x1906b10",
      "gasUsed": "0x13fb4",
      "effectiveGasPrice": "0x3d184628",
      "from": "0x08c93bdb1efb73386e7d57af26eea36c5749e790",
      "to": "0xf34bd9cf68b66f2d41365c122b2b26fa5ea99dc7",
      "contractAddress": null
    },
    {
      "status": "0x1",
      "cumulativeGasUsed": "0xc807c",
      "logs": [],
      "logsBloom": "0x00000000000000000000000000000000000000000000000000000000000000000000000000000000000000000000000000000000000000000000000000000000000000000000000000000000000000000000000000000000000000000000000000000000000000000000000000000000000000000000000000000000000000000000000000000000000000000000000000000000000000000000000000000000000000000000000000000000000000000000000000000000000000000000000000000000000000000000000000000000000000000000000000000000000000000000000000000000000000000000000000000000000000000000000000000000",
      "type": "0x0",
      "transactionHash": "0x391f729be59b97bec1e7b1d2d31165c06801bd8c945e13e6bd7742785784364e",
      "transactionIndex": "0x5",
      "blockHash": "0x0000652d000010ec54af394dc26f76fa5b72f799d4a985bffa3ef23ef3a0a5a9",
      "blockNumber": "0x1906b10",
      "gasUsed": "0x67043",
      "effectiveGasPrice": "0x3d184628",
      "from": "0x08c93bdb1efb73386e7d57af26eea36c5749e790",
      "to": null,
      "contractAddress": "0xd0b4cf7e773eda3e9157d7b1bbcf1b5f26a4123d"
    },
    {
      "status": "0x1",
      "cumulativeGasUsed": "0xdc030",
      "logs": [
        {
          "address": "0xf34bd9cf68b66f2d41365c122b2b26fa5ea99dc7",
          "topics": [
            "0x2f8788117e7eff1d82e926ec794901d17c78024a50270940304540a733656f0d",
            "0xfc1552b6aa2747ab03534329d86f6d3131cc2c88af7e48b6486c346619047c1a",
            "0x000000000000000000000000d0b4cf7e773eda3e9157d7b1bbcf1b5f26a4123d",
            "0x00000000000000000000000008c93bdb1efb73386e7d57af26eea36c5749e790"
          ],
          "data": "0x",
          "blockHash": "0x0000652d000010ec54af394dc26f76fa5b72f799d4a985bffa3ef23ef3a0a5a9",
          "blockNumber": "0x1906b10",
          "transactionHash": "0xfa0c38979317b700b1355ec12acbba2b791652d2736601095f0ea990361b9c79",
          "transactionIndex": "0x6",
          "logIndex": "0x5",
          "removed": false
        }
      ],
      "logsBloom": "0x00000004000100000000000000000000000000000000000000000000000000000100000000000000000000000000000400000000000000000000000000000000000000000000000000000000000000000000000000000000000000000800000000100000000000000000000000020000000400000000000000000000000000000000000000000000000000000000000000000000000000000000000000000000000000000000000000000000000000000000000000001000001000000000000000000000000002000001000000000000000000000000000100000000000000000000000000000000000002000000000000000000000000000000080000000000",
      "type": "0x0",
      "transactionHash": "0xfa0c38979317b700b1355ec12acbba2b791652d2736601095f0ea990361b9c79",
      "transactionIndex": "0x6",
      "blockHash": "0x0000652d000010ec54af394dc26f76fa5b72f799d4a985bffa3ef23ef3a0a5a9",
      "blockNumber": "0x1906b10",
      "gasUsed": "0x13fb4",
      "effectiveGasPrice": "0x3d184628",
      "from": "0x08c93bdb1efb73386e7d57af26eea36c5749e790",
      "to": "0xf34bd9cf68b66f2d41365c122b2b26fa5ea99dc7",
      "contractAddress": null
    },
    {
      "status": "0x1",
      "cumulativeGasUsed": "0x13fb4",
      "logs": [
        {
          "address": "0xf34bd9cf68b66f2d41365c122b2b26fa5ea99dc7",
          "topics": [
            "0x2f8788117e7eff1d82e926ec794901d17c78024a50270940304540a733656f0d",
            "0x9f2df0fed2c77648de5860a4cc508cd0818c85b8b8a1ab4ceeef8d981c8956a6",
            "0x000000000000000000000000d0b4cf7e773eda3e9157d7b1bbcf1b5f26a4123d",
            "0x00000000000000000000000008c93bdb1efb73386e7d57af26eea36c5749e790"
          ],
          "data": "0x",
          "blockHash": "0x0000652d000010f52ee8a1d5447f9361baaaa7ff99ed2620f71f00a27da6d78c",
          "blockNumber": "0x1906b11",
          "transactionHash": "0xd70bb4e32475acd719b0f9ecb5acf7127c91a0f213e4775755f6fc786fc74ba2",
          "transactionIndex": "0x0",
          "logIndex": "0x0",
          "removed": false
        }
      ],
      "logsBloom": "0x00000004000100000000000000000000000000000000000000000000000000000100000000000000000000000000004000000000000000000000000000000000000000000000000000000000000000000000000000000000000000000000000000100000000000000000000000020000000400000000000000000000001000000000000000000000000000000000000000000000000000000000000000000000000000000000000000000000000000000000000000000000001000000000000000000000000002000001000000000000001000000000000100000000000000000000000000000000000002000000000000000000000000000000080000000000",
      "type": "0x0",
      "transactionHash": "0xd70bb4e32475acd719b0f9ecb5acf7127c91a0f213e4775755f6fc786fc74ba2",
      "transactionIndex": "0x0",
      "blockHash": "0x0000652d000010f52ee8a1d5447f9361baaaa7ff99ed2620f71f00a27da6d78c",
      "blockNumber": "0x1906b11",
      "gasUsed": "0x13fb4",
      "effectiveGasPrice": "0x3d184628",
      "from": "0x08c93bdb1efb73386e7d57af26eea36c5749e790",
      "to": "0xf34bd9cf68b66f2d41365c122b2b26fa5ea99dc7",
      "contractAddress": null
    },
    {
      "status": "0x1",
      "cumulativeGasUsed": "0x27f68",
      "logs": [
        {
          "address": "0xf34bd9cf68b66f2d41365c122b2b26fa5ea99dc7",
          "topics": [
            "0x2f8788117e7eff1d82e926ec794901d17c78024a50270940304540a733656f0d",
            "0x832b0668f4756f82d274d4d6d2a66f96a8b25b4353ad5dfdae0e691d7769619b",
            "0x000000000000000000000000d0b4cf7e773eda3e9157d7b1bbcf1b5f26a4123d",
            "0x00000000000000000000000008c93bdb1efb73386e7d57af26eea36c5749e790"
          ],
          "data": "0x",
          "blockHash": "0x0000652d000010f52ee8a1d5447f9361baaaa7ff99ed2620f71f00a27da6d78c",
          "blockNumber": "0x1906b11",
          "transactionHash": "0xad3e489280d8666eacc5eb0dae00580cf1a7b4722d94f6d36c6e5008e2f7b085",
          "transactionIndex": "0x1",
          "logIndex": "0x1",
          "removed": false
        }
      ],
      "logsBloom": "0x00001004000100000000000000000000000000000000000000000000000000000100000000000000000000000000000000000000000000000000000000000000000000800000000000000000000000000000000000000000000000000000000000100000000000000000000000020000000400000000000000000000000000000000100000000000000000000000000000000000000000000000000000000000000000000000000000000000000000000000000000000000001000000000000000000000000002000001000000000000000000000000000100000000000000000000000000000000000002000000000000000000000000000000080000000000",
      "type": "0x0",
      "transactionHash": "0xad3e489280d8666eacc5eb0dae00580cf1a7b4722d94f6d36c6e5008e2f7b085",
      "transactionIndex": "0x1",
      "blockHash": "0x0000652d000010f52ee8a1d5447f9361baaaa7ff99ed2620f71f00a27da6d78c",
      "blockNumber": "0x1906b11",
      "gasUsed": "0x13fb4",
      "effectiveGasPrice": "0x3d184628",
      "from": "0x08c93bdb1efb73386e7d57af26eea36c5749e790",
      "to": "0xf34bd9cf68b66f2d41365c122b2b26fa5ea99dc7",
      "contractAddress": null
    },
    {
      "status": "0x1",
      "cumulativeGasUsed": "0x832a7",
      "logs": [
        {
          "address": "0xf34bd9cf68b66f2d41365c122b2b26fa5ea99dc7",
          "topics": [
            "0x6bb7ff708619ba0610cba295a58592e0451dee2622938c8755667688daf3529b",
            "0x0000000000000000000000000000000000000000000000000000000000000000"
          ],
          "data": "0x00000000000000000000000000000000000000000000000000000000000000200000000000000000000000000000000000000000000000000000000000000044697066733a2f2f62616679626569617a353577366b66376172326735767a696b6662667432716f65786b6e7374666f75753532346c3771336d6c6975746e733275342f3000000000000000000000000000000000000000000000000000000000",
          "blockHash": "0x0000652d000010f52ee8a1d5447f9361baaaa7ff99ed2620f71f00a27da6d78c",
          "blockNumber": "0x1906b11",
          "transactionHash": "0xfaa6fff919100c8493b9c3a1d5b5d6f56c0067bde2541623510ce325c27e3e12",
          "transactionIndex": "0x2",
          "logIndex": "0x2",
          "removed": false
        },
        {
          "address": "0xf34bd9cf68b66f2d41365c122b2b26fa5ea99dc7",
          "topics": [
            "0x6bb7ff708619ba0610cba295a58592e0451dee2622938c8755667688daf3529b",
            "0x0000000000000000000000000000000000000000000000000000000000000001"
          ],
          "data": "0x00000000000000000000000000000000000000000000000000000000000000200000000000000000000000000000000000000000000000000000000000000044697066733a2f2f62616679626569617a353577366b66376172326735767a696b6662667432716f65786b6e7374666f75753532346c3771336d6c6975746e733275342f3100000000000000000000000000000000000000000000000000000000",
          "blockHash": "0x0000652d000010f52ee8a1d5447f9361baaaa7ff99ed2620f71f00a27da6d78c",
          "blockNumber": "0x1906b11",
          "transactionHash": "0xfaa6fff919100c8493b9c3a1d5b5d6f56c0067bde2541623510ce325c27e3e12",
          "transactionIndex": "0x2",
          "logIndex": "0x3",
          "removed": false
        },
        {
          "address": "0xf34bd9cf68b66f2d41365c122b2b26fa5ea99dc7",
          "topics": [
            "0x6bb7ff708619ba0610cba295a58592e0451dee2622938c8755667688daf3529b",
            "0x0000000000000000000000000000000000000000000000000000000000000002"
          ],
          "data": "0x00000000000000000000000000000000000000000000000000000000000000200000000000000000000000000000000000000000000000000000000000000042697066733a2f2f6261666b72656968656f6379676233747934756f337a6e6a7732777a3261736a7a61766e35366f776c716a6f7a3463767876737067363465677471000000000000000000000000000000000000000000000000000000000000",
          "blockHash": "0x0000652d000010f52ee8a1d5447f9361baaaa7ff99ed2620f71f00a27da6d78c",
          "blockNumber": "0x1906b11",
          "transactionHash": "0xfaa6fff919100c8493b9c3a1d5b5d6f56c0067bde2541623510ce325c27e3e12",
          "transactionIndex": "0x2",
          "logIndex": "0x4",
          "removed": false
        },
        {
          "address": "0xf34bd9cf68b66f2d41365c122b2b26fa5ea99dc7",
          "topics": [
            "0x458bf7bb252bc16e01b2caf4ced1e71c065d09eccd86100e5f32036a1a556014",
            "0xe682b7c401097344fed1af3e3492f018caf2a2491b45159ba612453495164301",
            "0x25709ff08e817e4d69c96350c24d3b65079a6416b07e8b7414e2a5a270a726a4"
          ],
          "data": "0x",
          "blockHash": "0x0000652d000010f52ee8a1d5447f9361baaaa7ff99ed2620f71f00a27da6d78c",
          "blockNumber": "0x1906b11",
          "transactionHash": "0xfaa6fff919100c8493b9c3a1d5b5d6f56c0067bde2541623510ce325c27e3e12",
          "transactionIndex": "0x2",
          "logIndex": "0x5",
          "removed": false
        }
      ],
      "logsBloom": "0x040400000001000000000000000000000000000000000000000000008000000000000000000000000000000000000000000000000000000000000000000c0000000000000000010000000020000000000001000000040000000000000000000000100800020000000000000000000800000000000000000000000000000000000000000000000000000000000000001000000000000000000000000000000000000000000000000000000100000000000000000000000000000000000000000000000000000002000000000000000000000000000020080000000000000060000040000000000000000000000000000001000000008000000000000000000000",
      "type": "0x0",
      "transactionHash": "0xfaa6fff919100c8493b9c3a1d5b5d6f56c0067bde2541623510ce325c27e3e12",
      "transactionIndex": "0x2",
      "blockHash": "0x0000652d000010f52ee8a1d5447f9361baaaa7ff99ed2620f71f00a27da6d78c",
      "blockNumber": "0x1906b11",
      "gasUsed": "0x5b33f",
      "effectiveGasPrice": "0x3d184628",
      "from": "0x08c93bdb1efb73386e7d57af26eea36c5749e790",
      "to": "0xf34bd9cf68b66f2d41365c122b2b26fa5ea99dc7",
      "contractAddress": null
    },
    {
      "status": "0x1",
      "cumulativeGasUsed": "0x11625c",
      "logs": [
        {
          "address": "0xf34bd9cf68b66f2d41365c122b2b26fa5ea99dc7",
          "topics": [
            "0x5c5ac6bfb3f54a39f008d2e9be10d575012f29230716d49e92da377d748b1a87",
            "0x00000000000000000000000008c93bdb1efb73386e7d57af26eea36c5749e790",
            "0x000000000000000000000000d0b4cf7e773eda3e9157d7b1bbcf1b5f26a4123d"
          ],
          "data": "0x000000000000000000000000000000000000000000000000000000000000004000000000000000000000000000000000000000000000000000000000000000c000000000000000000000000000000000000000000000000000000000000000030000000000000000000000000000000000000000000000000000000000000000000000000000000000000000000000000000000000000000000000000000000100000000000000000000000000000000000000000000000000000000000000020000000000000000000000000000000000000000000000000000000000000003000000000000000000000000000000000000000000000000000000000000271000000000000000000000000000000000000000000000000000000000000027100000000000000000000000000000000000000000000000000000000000002710",
          "blockHash": "0x0000652d000010f52ee8a1d5447f9361baaaa7ff99ed2620f71f00a27da6d78c",
          "blockNumber": "0x1906b11",
          "transactionHash": "0xa28372b1e43e5f33042f070ec0f8ad2143ebe2ba6867c4cb50b5cfcf8b9268c9",
          "transactionIndex": "0x3",
          "logIndex": "0x6",
          "removed": false
        },
        {
          "address": "0xf34bd9cf68b66f2d41365c122b2b26fa5ea99dc7",
          "topics": [
            "0x4a39dc06d4c0dbc64b70af90fd698a233a518aa5d07e595d983b8c0526c8f7fb",
            "0x00000000000000000000000008c93bdb1efb73386e7d57af26eea36c5749e790",
            "0x0000000000000000000000000000000000000000000000000000000000000000",
            "0x000000000000000000000000d0b4cf7e773eda3e9157d7b1bbcf1b5f26a4123d"
          ],
          "data": "0x000000000000000000000000000000000000000000000000000000000000004000000000000000000000000000000000000000000000000000000000000000c000000000000000000000000000000000000000000000000000000000000000030000000000000000000000000000000000000000000000000000000000000000000000000000000000000000000000000000000000000000000000000000000100000000000000000000000000000000000000000000000000000000000000020000000000000000000000000000000000000000000000000000000000000003000000000000000000000000000000000000000000000000000000000000271000000000000000000000000000000000000000000000000000000000000027100000000000000000000000000000000000000000000000000000000000002710",
          "blockHash": "0x0000652d000010f52ee8a1d5447f9361baaaa7ff99ed2620f71f00a27da6d78c",
          "blockNumber": "0x1906b11",
          "transactionHash": "0xa28372b1e43e5f33042f070ec0f8ad2143ebe2ba6867c4cb50b5cfcf8b9268c9",
          "transactionIndex": "0x3",
          "logIndex": "0x7",
          "removed": false
        }
      ],
      "logsBloom": "0x00000000000100000000000000000000000000000000000000000000000000000100000000000000000000000000000000000000000000000000000000000000000000000000000000000000000000000000000000000000000000000000000000100000020000000000000000020800000400000800000000000000000000000000000000000000000000000000000000000000000000000000000000001000000000000000000000000000000000002000000000000000000000000000000000000000000002000001000000000000000400000000000000000000000020000000000000000000000082000000000000000000000000000000080002000000",
      "type": "0x0",
      "transactionHash": "0xa28372b1e43e5f33042f070ec0f8ad2143ebe2ba6867c4cb50b5cfcf8b9268c9",
      "transactionIndex": "0x3",
      "blockHash": "0x0000652d000010f52ee8a1d5447f9361baaaa7ff99ed2620f71f00a27da6d78c",
      "blockNumber": "0x1906b11",
      "gasUsed": "0x92fb5",
      "effectiveGasPrice": "0x3d184628",
      "from": "0x08c93bdb1efb73386e7d57af26eea36c5749e790",
      "to": "0xf34bd9cf68b66f2d41365c122b2b26fa5ea99dc7",
      "contractAddress": null
    },
    {
      "status": "0x1",
      "cumulativeGasUsed": "0x536557",
      "logs": [],
      "logsBloom": "0x00000000000000000000000000000000000000000000000000000000000000000000000000000000000000000000000000000000000000000000000000000000000000000000000000000000000000000000000000000000000000000000000000000000000000000000000000000000000000000000000000000000000000000000000000000000000000000000000000000000000000000000000000000000000000000000000000000000000000000000000000000000000000000000000000000000000000000000000000000000000000000000000000000000000000000000000000000000000000000000000000000000000000000000000000000000",
      "type": "0x0",
      "transactionHash": "0x398a76cc17c90be2aac9b2b78b1a8420d07716bec5ff16c39cf393f8c51a90aa",
      "transactionIndex": "0x4",
      "blockHash": "0x0000652d000010f52ee8a1d5447f9361baaaa7ff99ed2620f71f00a27da6d78c",
      "blockNumber": "0x1906b11",
      "gasUsed": "0x4202fb",
      "effectiveGasPrice": "0x3d184628",
      "from": "0x08c93bdb1efb73386e7d57af26eea36c5749e790",
      "to": null,
      "contractAddress": "0xa8a4d5794b140fd9e16dfbef675f2d8521729e4c"
    },
    {
      "status": "0x1",
      "cumulativeGasUsed": "0x56022f",
      "logs": [
        {
          "address": "0xa8a4d5794b140fd9e16dfbef675f2d8521729e4c",
          "topics": [
            "0x4d38ad12136291322128027bb8c3af7db2261be395032c1d26dd0ad20cf29415"
          ],
          "data": "0x000000010000000000000000000000000000000000000000000000000000000000000000000000000000000000000000000000000000000000000000000000e0000000000000000000000000000000000000000000000000000000000000000100000000000000000000000000000000000000000000000000000000000000000000000000000000000000000000000000000000000000000000000000000000000000000000000000000000000000000000000000000000000000000000000000000000000000000000000000000000000000000000000000000000000001200000000000000000000000000000000000000000000000000000000000000007546f702048617400000000000000000000000000000000000000000000000000000000000000000000000000000000000000000000000000000000000000000b546f704861742049504653000000000000000000000000000000000000000000",
          "blockHash": "0x0000652d000010f52ee8a1d5447f9361baaaa7ff99ed2620f71f00a27da6d78c",
          "blockNumber": "0x1906b11",
          "transactionHash": "0x8fe7a992ae9821cdf323bb5e245d53cafffef6de75378e12dce94993428143ed",
          "transactionIndex": "0x5",
          "logIndex": "0x8",
          "removed": false
        },
        {
          "address": "0xa8a4d5794b140fd9e16dfbef675f2d8521729e4c",
          "topics": [
            "0xc3d58168c5ae7397731d063d5bbf3d657854427343f4c083240f7aacaa2d0f62",
            "0x00000000000000000000000008c93bdb1efb73386e7d57af26eea36c5749e790",
            "0x0000000000000000000000000000000000000000000000000000000000000000",
            "0x00000000000000000000000008c93bdb1efb73386e7d57af26eea36c5749e790"
          ],
          "data": "0x00000001000000000000000000000000000000000000000000000000000000000000000000000000000000000000000000000000000000000000000000000001",
          "blockHash": "0x0000652d000010f52ee8a1d5447f9361baaaa7ff99ed2620f71f00a27da6d78c",
          "blockNumber": "0x1906b11",
          "transactionHash": "0x8fe7a992ae9821cdf323bb5e245d53cafffef6de75378e12dce94993428143ed",
          "transactionIndex": "0x5",
          "logIndex": "0x9",
          "removed": false
        }
      ],
      "logsBloom": "0x00000000000000000000000000002000000000000000000000100000000000000000000000000000800000000000000000000000000000000000000000002000000000000000000000000000000000000000000000000000000000000000000000000002020000000000000000020800000400000000000000000000000000000000000000000000000000000000000000000000000000000000000000000400000000000000000000000000000000000004000000000000000000000000000000000000000000000001000000000000000000000008000000000000000020000000000000000000000000000000000000000000000000000000080000000000",
      "type": "0x0",
      "transactionHash": "0x8fe7a992ae9821cdf323bb5e245d53cafffef6de75378e12dce94993428143ed",
      "transactionIndex": "0x5",
      "blockHash": "0x0000652d000010f52ee8a1d5447f9361baaaa7ff99ed2620f71f00a27da6d78c",
      "blockNumber": "0x1906b11",
      "gasUsed": "0x29cd8",
      "effectiveGasPrice": "0x3d184628",
      "from": "0x08c93bdb1efb73386e7d57af26eea36c5749e790",
      "to": "0xa8a4d5794b140fd9e16dfbef675f2d8521729e4c",
      "contractAddress": null
    },
    {
      "status": "0x1",
      "cumulativeGasUsed": "0x582c61",
      "logs": [
        {
          "address": "0xa8a4d5794b140fd9e16dfbef675f2d8521729e4c",
          "topics": [
            "0x4d38ad12136291322128027bb8c3af7db2261be395032c1d26dd0ad20cf29415"
          ],
          "data": "0x000000010001000000000000000000000000000000000000000000000000000000000000000000000000000000000000000000000000000000000000000000e0000000000000000000000000000000000000000000000000000000000000000500000000000000000000000008c93bdb1efb73386e7d57af26eea36c5749e79000000000000000000000000008c93bdb1efb73386e7d57af26eea36c5749e7900000000000000000000000000000000000000000000000000000000000000001000000000000000000000000000000000000000000000000000000000000012000000000000000000000000000000000000000000000000000000000000000064861747465720000000000000000000000000000000000000000000000000000000000000000000000000000000000000000000000000000000000000000000b4861747465722049504653000000000000000000000000000000000000000000",
          "blockHash": "0x0000652d000010f52ee8a1d5447f9361baaaa7ff99ed2620f71f00a27da6d78c",
          "blockNumber": "0x1906b11",
          "transactionHash": "0x3d13bf20ea93a9e428ef698e7125d8aeb4df181b97793438517d099edaa59a15",
          "transactionIndex": "0x6",
          "logIndex": "0xa",
          "removed": false
        }
      ],
      "logsBloom": "0x00000000000000000000000000002000000000000000000000100000000000000000000000000000800000000000000000000000000000000000000000000000000000000000000000000000000000000000000000000000000000000000000000000002000000000000000000000000000000000000000000000000000000000000000000000000000000000000000000000000000000000000000000000400000000000000000000000000000000000004000000000000000000000000000000000000000000000000000000000000000000000000000000000000000000000000000000000000000000000000000000000000000000000000000000000000",
      "type": "0x0",
      "transactionHash": "0x3d13bf20ea93a9e428ef698e7125d8aeb4df181b97793438517d099edaa59a15",
      "transactionIndex": "0x6",
      "blockHash": "0x0000652d000010f52ee8a1d5447f9361baaaa7ff99ed2620f71f00a27da6d78c",
      "blockNumber": "0x1906b11",
      "gasUsed": "0x22a32",
      "effectiveGasPrice": "0x3d184628",
      "from": "0x08c93bdb1efb73386e7d57af26eea36c5749e790",
      "to": "0xa8a4d5794b140fd9e16dfbef675f2d8521729e4c",
      "contractAddress": null
    },
    {
      "status": "0x1",
      "cumulativeGasUsed": "0x645610",
      "logs": [
        {
          "address": "0x64ebf6e6597e707978df33f08e5847976c00db03",
          "topics": [
            "0xc7f505b2f371ae2175ee4913f4499e1f2633a7b5936321eed1cdaeb6115181d2"
          ],
          "data": "0x000000000000000000000000000000000000000000000000ffffffffffffffff",
          "blockHash": "0x0000652d000010f52ee8a1d5447f9361baaaa7ff99ed2620f71f00a27da6d78c",
          "blockNumber": "0x1906b11",
          "transactionHash": "0x8b5bb0bd97699a396d0ffe818f5e536624c3c9b5e398656867afc7d7d9b48502",
          "transactionIndex": "0x7",
          "logIndex": "0xb",
          "removed": false
        }
      ],
      "logsBloom": "0x00000000000000000000000000000000000000000000000000000000000000000000000000000000000000000000000000000000000000000000400000000000000000000000000000000000000000000000000000000000000000000000000000000000000000000000000000000000000000000000000000000000000000000000000000000000000800000000000000000000000080000000000000000010000000000000000000000000000000000000000000000000000000010000000000000000000000000000000000000000000000000004000000000000000000000000000000000000000000000000000000000000000000000000000000000000",
      "type": "0x0",
      "transactionHash": "0x8b5bb0bd97699a396d0ffe818f5e536624c3c9b5e398656867afc7d7d9b48502",
      "transactionIndex": "0x7",
      "blockHash": "0x0000652d000010f52ee8a1d5447f9361baaaa7ff99ed2620f71f00a27da6d78c",
      "blockNumber": "0x1906b11",
      "gasUsed": "0xc29af",
      "effectiveGasPrice": "0x3d184628",
      "from": "0x08c93bdb1efb73386e7d57af26eea36c5749e790",
      "to": null,
      "contractAddress": "0x64ebf6e6597e707978df33f08e5847976c00db03"
    },
    {
      "status": "0x1",
      "cumulativeGasUsed": "0x657d5f",
      "logs": [
        {
          "address": "0xa8a4d5794b140fd9e16dfbef675f2d8521729e4c",
          "topics": [
            "0xc3d58168c5ae7397731d063d5bbf3d657854427343f4c083240f7aacaa2d0f62",
            "0x00000000000000000000000008c93bdb1efb73386e7d57af26eea36c5749e790",
            "0x0000000000000000000000000000000000000000000000000000000000000000",
            "0x00000000000000000000000064ebf6e6597e707978df33f08e5847976c00db03"
          ],
          "data": "0x00000001000100000000000000000000000000000000000000000000000000000000000000000000000000000000000000000000000000000000000000000001",
          "blockHash": "0x0000652d000010f52ee8a1d5447f9361baaaa7ff99ed2620f71f00a27da6d78c",
          "blockNumber": "0x1906b11",
          "transactionHash": "0x95d21d51b4e715bd30526457480208b7afb6098d6d28615cf927cd8ce1f35156",
          "transactionIndex": "0x8",
          "logIndex": "0xc",
          "removed": false
        }
      ],
      "logsBloom": "0x00000000000000000000000000000000000000000000000000100000000000000000000000000000000000000000000000000000000000000000000000002000000000000000000000000000000000000000000000000000000000000100000000000002020000000000000000020800000400000000000000000000000000000000000000000000000000000000000000000000000000000080000000000400000000000000000000000000000000000000000000000000000000000000000000000000000000000001000000000000000000000008000000000000000020000000000000000000000000000000000000000000000000000400080000000000",
      "type": "0x0",
      "transactionHash": "0x95d21d51b4e715bd30526457480208b7afb6098d6d28615cf927cd8ce1f35156",
      "transactionIndex": "0x8",
      "blockHash": "0x0000652d000010f52ee8a1d5447f9361baaaa7ff99ed2620f71f00a27da6d78c",
      "blockNumber": "0x1906b11",
      "gasUsed": "0x1274f",
      "effectiveGasPrice": "0x3d184628",
      "from": "0x08c93bdb1efb73386e7d57af26eea36c5749e790",
      "to": "0xa8a4d5794b140fd9e16dfbef675f2d8521729e4c",
      "contractAddress": null
    },
    {
      "status": "0x1",
      "cumulativeGasUsed": "0x66e738",
      "logs": [],
      "logsBloom": "0x00000000000000000000000000000000000000000000000000000000000000000000000000000000000000000000000000000000000000000000000000000000000000000000000000000000000000000000000000000000000000000000000000000000000000000000000000000000000000000000000000000000000000000000000000000000000000000000000000000000000000000000000000000000000000000000000000000000000000000000000000000000000000000000000000000000000000000000000000000000000000000000000000000000000000000000000000000000000000000000000000000000000000000000000000000000",
      "type": "0x0",
      "transactionHash": "0x86f4f4b46b283a02f2f95d8595635b42882c696a00295350df5c8d4d3a7751ac",
      "transactionIndex": "0x9",
      "blockHash": "0x0000652d000010f52ee8a1d5447f9361baaaa7ff99ed2620f71f00a27da6d78c",
      "blockNumber": "0x1906b11",
      "gasUsed": "0x169d9",
      "effectiveGasPrice": "0x3d184628",
      "from": "0x08c93bdb1efb73386e7d57af26eea36c5749e790",
      "to": null,
      "contractAddress": "0x8e05f0d0262dfc5251f383b84e3cfdd3e2164211"
    },
    {
      "status": "0x1",
      "cumulativeGasUsed": "0x69c659",
      "logs": [],
      "logsBloom": "0x00000000000000000000000000000000000000000000000000000000000000000000000000000000000000000000000000000000000000000000000000000000000000000000000000000000000000000000000000000000000000000000000000000000000000000000000000000000000000000000000000000000000000000000000000000000000000000000000000000000000000000000000000000000000000000000000000000000000000000000000000000000000000000000000000000000000000000000000000000000000000000000000000000000000000000000000000000000000000000000000000000000000000000000000000000000",
      "type": "0x0",
      "transactionHash": "0x29d7c4b2494f2cb39f48e8d4da77771a21cc59019755416902caf58ab0a0588d",
      "transactionIndex": "0xa",
      "blockHash": "0x0000652d000010f52ee8a1d5447f9361baaaa7ff99ed2620f71f00a27da6d78c",
      "blockNumber": "0x1906b11",
      "gasUsed": "0x2df21",
      "effectiveGasPrice": "0x3d184628",
      "from": "0x08c93bdb1efb73386e7d57af26eea36c5749e790",
      "to": null,
      "contractAddress": "0x3e7c521b073e7516f73ba08459a2390c04afa816"
    },
    {
      "status": "0x1",
      "cumulativeGasUsed": "0x6ca586",
      "logs": [],
      "logsBloom": "0x00000000000000000000000000000000000000000000000000000000000000000000000000000000000000000000000000000000000000000000000000000000000000000000000000000000000000000000000000000000000000000000000000000000000000000000000000000000000000000000000000000000000000000000000000000000000000000000000000000000000000000000000000000000000000000000000000000000000000000000000000000000000000000000000000000000000000000000000000000000000000000000000000000000000000000000000000000000000000000000000000000000000000000000000000000000",
      "type": "0x0",
      "transactionHash": "0xe35d11e209405d28cfe74e886de1042c2fe8775fd52d4704c7e5a721f031ec84",
      "transactionIndex": "0xb",
      "blockHash": "0x0000652d000010f52ee8a1d5447f9361baaaa7ff99ed2620f71f00a27da6d78c",
      "blockNumber": "0x1906b11",
      "gasUsed": "0x2df2d",
      "effectiveGasPrice": "0x3d184628",
      "from": "0x08c93bdb1efb73386e7d57af26eea36c5749e790",
      "to": null,
      "contractAddress": "0x12514e042062e52ae274ea6010b98bfe84122c6d"
    },
    {
      "status": "0x1",
      "cumulativeGasUsed": "0x6f84b3",
      "logs": [],
      "logsBloom": "0x00000000000000000000000000000000000000000000000000000000000000000000000000000000000000000000000000000000000000000000000000000000000000000000000000000000000000000000000000000000000000000000000000000000000000000000000000000000000000000000000000000000000000000000000000000000000000000000000000000000000000000000000000000000000000000000000000000000000000000000000000000000000000000000000000000000000000000000000000000000000000000000000000000000000000000000000000000000000000000000000000000000000000000000000000000000",
      "type": "0x0",
      "transactionHash": "0x4d5265b6d68e0c1e879fdc140b874876023ed6804b8e6cbdd3e3760b59e7114b",
      "transactionIndex": "0xc",
      "blockHash": "0x0000652d000010f52ee8a1d5447f9361baaaa7ff99ed2620f71f00a27da6d78c",
      "blockNumber": "0x1906b11",
      "gasUsed": "0x2df2d",
      "effectiveGasPrice": "0x3d184628",
      "from": "0x08c93bdb1efb73386e7d57af26eea36c5749e790",
      "to": null,
      "contractAddress": "0xeb7ca04aabdc78391dc9d8fd66a61589145c162c"
    },
    {
      "status": "0x1",
      "cumulativeGasUsed": "0x72f1a3",
      "logs": [
        {
          "address": "0xa8a4d5794b140fd9e16dfbef675f2d8521729e4c",
          "topics": [
            "0x4d38ad12136291322128027bb8c3af7db2261be395032c1d26dd0ad20cf29415"
          ],
          "data": "0x000000010001000100000000000000000000000000000000000000000000000000000000000000000000000000000000000000000000000000000000000000e0000000000000000000000000000000000000000000000000000000000000001e0000000000000000000000003e7c521b073e7516f73ba08459a2390c04afa8160000000000000000000000008e05f0d0262dfc5251f383b84e3cfdd3e2164211000000000000000000000000000000000000000000000000000000000000000100000000000000000000000000000000000000000000000000000000000001200000000000000000000000000000000000000000000000000000000000000012486174206f6620456e67696e656572696e6700000000000000000000000000000000000000000000000000000000000000000000000000000000000000000042697066733a2f2f6261666b726569636666326a363774673567336b6c6b746b6b347761766363746f726a3635793575706b6f6c7a6e776762686d72616b7634646261000000000000000000000000000000000000000000000000000000000000",
          "blockHash": "0x0000652d000010f52ee8a1d5447f9361baaaa7ff99ed2620f71f00a27da6d78c",
          "blockNumber": "0x1906b11",
          "transactionHash": "0xf4f7d73a2abbe580e02e9581a419803b58c863b22c98e5b4c801021d0783ef88",
          "transactionIndex": "0xd",
          "logIndex": "0xd",
          "removed": false
        }
      ],
      "logsBloom": "0x00000000000000000000000000002000000000000000000000100000000000000000000000000000800000000000000000000000000000000000000000000000000000000000000000000000000000000000000000000000000000000000000000000002000000000000000000000000000000000000000000000000000000000000000000000000000000000000000000000000000000000000000000000400000000000000000000000000000000000004000000000000000000000000000000000000000000000000000000000000000000000000000000000000000000000000000000000000000000000000000000000000000000000000000000000000",
      "type": "0x0",
      "transactionHash": "0xf4f7d73a2abbe580e02e9581a419803b58c863b22c98e5b4c801021d0783ef88",
      "transactionIndex": "0xd",
      "blockHash": "0x0000652d000010f52ee8a1d5447f9361baaaa7ff99ed2620f71f00a27da6d78c",
      "blockNumber": "0x1906b11",
      "gasUsed": "0x36cf0",
      "effectiveGasPrice": "0x3d184628",
      "from": "0x08c93bdb1efb73386e7d57af26eea36c5749e790",
      "to": "0xa8a4d5794b140fd9e16dfbef675f2d8521729e4c",
      "contractAddress": null
    },
    {
      "status": "0x1",
      "cumulativeGasUsed": "0x765e87",
      "logs": [
        {
          "address": "0xa8a4d5794b140fd9e16dfbef675f2d8521729e4c",
          "topics": [
            "0x4d38ad12136291322128027bb8c3af7db2261be395032c1d26dd0ad20cf29415"
          ],
          "data": "0x000000010001000200000000000000000000000000000000000000000000000000000000000000000000000000000000000000000000000000000000000000e0000000000000000000000000000000000000000000000000000000000000001e00000000000000000000000012514e042062e52ae274ea6010b98bfe84122c6d0000000000000000000000008e05f0d0262dfc5251f383b84e3cfdd3e2164211000000000000000000000000000000000000000000000000000000000000000100000000000000000000000000000000000000000000000000000000000001200000000000000000000000000000000000000000000000000000000000000011486174206f6620537465617264736869700000000000000000000000000000000000000000000000000000000000000000000000000000000000000000000042697066733a2f2f6261666b726569626669616e3666796275696664766368726a73707170656476726b616b6877646e7968707772726f7573747061376d6a74746f34000000000000000000000000000000000000000000000000000000000000",
          "blockHash": "0x0000652d000010f52ee8a1d5447f9361baaaa7ff99ed2620f71f00a27da6d78c",
          "blockNumber": "0x1906b11",
          "transactionHash": "0xbd411dbd3cc7fb40f5044bbc7d7d1883a83a2c229078856e51b86156082e1dd9",
          "transactionIndex": "0xe",
          "logIndex": "0xe",
          "removed": false
        }
      ],
      "logsBloom": "0x00000000000000000000000000002000000000000000000000100000000000000000000000000000800000000000000000000000000000000000000000000000000000000000000000000000000000000000000000000000000000000000000000000002000000000000000000000000000000000000000000000000000000000000000000000000000000000000000000000000000000000000000000000400000000000000000000000000000000000004000000000000000000000000000000000000000000000000000000000000000000000000000000000000000000000000000000000000000000000000000000000000000000000000000000000000",
      "type": "0x0",
      "transactionHash": "0xbd411dbd3cc7fb40f5044bbc7d7d1883a83a2c229078856e51b86156082e1dd9",
      "transactionIndex": "0xe",
      "blockHash": "0x0000652d000010f52ee8a1d5447f9361baaaa7ff99ed2620f71f00a27da6d78c",
      "blockNumber": "0x1906b11",
      "gasUsed": "0x36ce4",
      "effectiveGasPrice": "0x3d184628",
      "from": "0x08c93bdb1efb73386e7d57af26eea36c5749e790",
      "to": "0xa8a4d5794b140fd9e16dfbef675f2d8521729e4c",
      "contractAddress": null
    },
    {
      "status": "0x1",
      "cumulativeGasUsed": "0x36cb2",
      "logs": [
        {
          "address": "0xa8a4d5794b140fd9e16dfbef675f2d8521729e4c",
          "topics": [
            "0x4d38ad12136291322128027bb8c3af7db2261be395032c1d26dd0ad20cf29415"
          ],
          "data": "0x000000010001000300000000000000000000000000000000000000000000000000000000000000000000000000000000000000000000000000000000000000e0000000000000000000000000000000000000000000000000000000000000001e000000000000000000000000eb7ca04aabdc78391dc9d8fd66a61589145c162c0000000000000000000000008e05f0d0262dfc5251f383b84e3cfdd3e216421100000000000000000000000000000000000000000000000000000000000000010000000000000000000000000000000000000000000000000000000000000120000000000000000000000000000000000000000000000000000000000000000d486174206f662057617264656e000000000000000000000000000000000000000000000000000000000000000000000000000000000000000000000000000042697066733a2f2f6261666b72656967767a657937376e69617271736c6d36776a643365373769687763357263647272616870336f366f673264737a7a7a7732667069000000000000000000000000000000000000000000000000000000000000",
          "blockHash": "0x0000652d00001101db70ae43e4cd747517d6d8d13d24e9299b2dab3b4a0d74c9",
          "blockNumber": "0x1906b12",
          "transactionHash": "0x8259a8e6e26414b562795509630cde6633f83a719196105ab7fd4ace8ebc6b09",
          "transactionIndex": "0x0",
          "logIndex": "0x0",
          "removed": false
        }
      ],
      "logsBloom": "0x00000000000000000000000000002000000000000000000000100000000000000000000000000000800000000000000000000000000000000000000000000000000000000000000000000000000000000000000000000000000000000000000000000002000000000000000000000000000000000000000000000000000000000000000000000000000000000000000000000000000000000000000000000400000000000000000000000000000000000004000000000000000000000000000000000000000000000000000000000000000000000000000000000000000000000000000000000000000000000000000000000000000000000000000000000000",
      "type": "0x0",
      "transactionHash": "0x8259a8e6e26414b562795509630cde6633f83a719196105ab7fd4ace8ebc6b09",
      "transactionIndex": "0x0",
      "blockHash": "0x0000652d00001101db70ae43e4cd747517d6d8d13d24e9299b2dab3b4a0d74c9",
      "blockNumber": "0x1906b12",
      "gasUsed": "0x36cb2",
      "effectiveGasPrice": "0x3d184628",
      "from": "0x08c93bdb1efb73386e7d57af26eea36c5749e790",
      "to": "0xa8a4d5794b140fd9e16dfbef675f2d8521729e4c",
      "contractAddress": null
    }
  ],
  "libraries": [],
  "pending": [],
  "returns": {},
  "timestamp": 1719756885,
  "chain": 4002,
  "commit": "89da43f"
}